{
  "contractName": "MasterChef",
  "abi": [
    {
      "inputs": [
        {
          "internalType": "contract EBIToken",
          "name": "_goo",
          "type": "address"
        },
        {
          "internalType": "address",
          "name": "_devaddr",
          "type": "address"
        },
        {
          "internalType": "address",
          "name": "_feeAddress",
          "type": "address"
        },
        {
          "internalType": "uint256",
          "name": "_gooPerBlock",
          "type": "uint256"
        },
        {
          "internalType": "uint256",
          "name": "_startBlock",
          "type": "uint256"
        }
      ],
      "stateMutability": "nonpayable",
      "type": "constructor"
    },
    {
      "anonymous": false,
      "inputs": [
        {
          "indexed": true,
          "internalType": "address",
          "name": "user",
          "type": "address"
        },
        {
          "indexed": true,
          "internalType": "uint256",
          "name": "pid",
          "type": "uint256"
        },
        {
          "indexed": false,
          "internalType": "uint256",
          "name": "amount",
          "type": "uint256"
        }
      ],
      "name": "Deposit",
      "type": "event"
    },
    {
      "anonymous": false,
      "inputs": [
        {
          "indexed": true,
          "internalType": "address",
          "name": "user",
          "type": "address"
        },
        {
          "indexed": true,
          "internalType": "uint256",
          "name": "pid",
          "type": "uint256"
        },
        {
          "indexed": false,
          "internalType": "uint256",
          "name": "amount",
          "type": "uint256"
        }
      ],
      "name": "EmergencyWithdraw",
      "type": "event"
    },
    {
      "anonymous": false,
      "inputs": [
        {
          "indexed": true,
          "internalType": "address",
          "name": "previousOwner",
          "type": "address"
        },
        {
          "indexed": true,
          "internalType": "address",
          "name": "newOwner",
          "type": "address"
        }
      ],
      "name": "OwnershipTransferred",
      "type": "event"
    },
    {
      "anonymous": false,
      "inputs": [
        {
          "indexed": true,
          "internalType": "address",
          "name": "user",
          "type": "address"
        },
        {
          "indexed": true,
          "internalType": "uint256",
          "name": "pid",
          "type": "uint256"
        },
        {
          "indexed": false,
          "internalType": "uint256",
          "name": "amount",
          "type": "uint256"
        }
      ],
      "name": "Withdraw",
      "type": "event"
    },
    {
      "inputs": [],
      "name": "BONUS_MULTIPLIER",
      "outputs": [
        {
          "internalType": "uint256",
          "name": "",
          "type": "uint256"
        }
      ],
      "stateMutability": "view",
      "type": "function"
    },
    {
      "inputs": [],
      "name": "devaddr",
      "outputs": [
        {
          "internalType": "address",
          "name": "",
          "type": "address"
        }
      ],
      "stateMutability": "view",
      "type": "function"
    },
    {
      "inputs": [],
      "name": "feeAddress",
      "outputs": [
        {
          "internalType": "address",
          "name": "",
          "type": "address"
        }
      ],
      "stateMutability": "view",
      "type": "function"
    },
    {
      "inputs": [],
      "name": "goo",
      "outputs": [
        {
          "internalType": "contract EBIToken",
          "name": "",
          "type": "address"
        }
      ],
      "stateMutability": "view",
      "type": "function"
    },
    {
      "inputs": [],
      "name": "gooPerBlock",
      "outputs": [
        {
          "internalType": "uint256",
          "name": "",
          "type": "uint256"
        }
      ],
      "stateMutability": "view",
      "type": "function"
    },
    {
      "inputs": [],
      "name": "owner",
      "outputs": [
        {
          "internalType": "address",
          "name": "",
          "type": "address"
        }
      ],
      "stateMutability": "view",
      "type": "function"
    },
    {
      "inputs": [
        {
          "internalType": "uint256",
          "name": "",
          "type": "uint256"
        }
      ],
      "name": "poolInfo",
      "outputs": [
        {
          "internalType": "contract IBEP20",
          "name": "lpToken",
          "type": "address"
        },
        {
          "internalType": "uint256",
          "name": "allocPoint",
          "type": "uint256"
        },
        {
          "internalType": "uint256",
          "name": "lastRewardBlock",
          "type": "uint256"
        },
        {
          "internalType": "uint256",
          "name": "accGooPerShare",
          "type": "uint256"
        },
        {
          "internalType": "uint16",
          "name": "depositFeeBP",
          "type": "uint16"
        }
      ],
      "stateMutability": "view",
      "type": "function"
    },
    {
      "inputs": [],
      "name": "renounceOwnership",
      "outputs": [],
      "stateMutability": "nonpayable",
      "type": "function"
    },
    {
      "inputs": [],
      "name": "startBlock",
      "outputs": [
        {
          "internalType": "uint256",
          "name": "",
          "type": "uint256"
        }
      ],
      "stateMutability": "view",
      "type": "function"
    },
    {
      "inputs": [],
      "name": "totalAllocPoint",
      "outputs": [
        {
          "internalType": "uint256",
          "name": "",
          "type": "uint256"
        }
      ],
      "stateMutability": "view",
      "type": "function"
    },
    {
      "inputs": [
        {
          "internalType": "address",
          "name": "newOwner",
          "type": "address"
        }
      ],
      "name": "transferOwnership",
      "outputs": [],
      "stateMutability": "nonpayable",
      "type": "function"
    },
    {
      "inputs": [
        {
          "internalType": "uint256",
          "name": "",
          "type": "uint256"
        },
        {
          "internalType": "address",
          "name": "",
          "type": "address"
        }
      ],
      "name": "userInfo",
      "outputs": [
        {
          "internalType": "uint256",
          "name": "amount",
          "type": "uint256"
        },
        {
          "internalType": "uint256",
          "name": "rewardDebt",
          "type": "uint256"
        }
      ],
      "stateMutability": "view",
      "type": "function"
    },
    {
      "inputs": [],
      "name": "poolLength",
      "outputs": [
        {
          "internalType": "uint256",
          "name": "",
          "type": "uint256"
        }
      ],
      "stateMutability": "view",
      "type": "function"
    },
    {
      "inputs": [
        {
          "internalType": "uint256",
          "name": "_allocPoint",
          "type": "uint256"
        },
        {
          "internalType": "contract IBEP20",
          "name": "_lpToken",
          "type": "address"
        },
        {
          "internalType": "uint16",
          "name": "_depositFeeBP",
          "type": "uint16"
        },
        {
          "internalType": "bool",
          "name": "_withUpdate",
          "type": "bool"
        }
      ],
      "name": "add",
      "outputs": [],
      "stateMutability": "nonpayable",
      "type": "function"
    },
    {
      "inputs": [
        {
          "internalType": "uint256",
          "name": "_pid",
          "type": "uint256"
        },
        {
          "internalType": "uint256",
          "name": "_allocPoint",
          "type": "uint256"
        },
        {
          "internalType": "uint16",
          "name": "_depositFeeBP",
          "type": "uint16"
        },
        {
          "internalType": "bool",
          "name": "_withUpdate",
          "type": "bool"
        }
      ],
      "name": "set",
      "outputs": [],
      "stateMutability": "nonpayable",
      "type": "function"
    },
    {
      "inputs": [
        {
          "internalType": "uint256",
          "name": "_from",
          "type": "uint256"
        },
        {
          "internalType": "uint256",
          "name": "_to",
          "type": "uint256"
        }
      ],
      "name": "getMultiplier",
      "outputs": [
        {
          "internalType": "uint256",
          "name": "",
          "type": "uint256"
        }
      ],
      "stateMutability": "view",
      "type": "function"
    },
    {
      "inputs": [
        {
          "internalType": "uint256",
          "name": "_pid",
          "type": "uint256"
        },
        {
          "internalType": "address",
          "name": "_user",
          "type": "address"
        }
      ],
      "name": "pendingGoo",
      "outputs": [
        {
          "internalType": "uint256",
          "name": "",
          "type": "uint256"
        }
      ],
      "stateMutability": "view",
      "type": "function"
    },
    {
      "inputs": [],
      "name": "massUpdatePools",
      "outputs": [],
      "stateMutability": "nonpayable",
      "type": "function"
    },
    {
      "inputs": [
        {
          "internalType": "uint256",
          "name": "_pid",
          "type": "uint256"
        }
      ],
      "name": "updatePool",
      "outputs": [],
      "stateMutability": "nonpayable",
      "type": "function"
    },
    {
      "inputs": [
        {
          "internalType": "uint256",
          "name": "_pid",
          "type": "uint256"
        },
        {
          "internalType": "uint256",
          "name": "_amount",
          "type": "uint256"
        }
      ],
      "name": "deposit",
      "outputs": [],
      "stateMutability": "nonpayable",
      "type": "function"
    },
    {
      "inputs": [
        {
          "internalType": "uint256",
          "name": "_pid",
          "type": "uint256"
        },
        {
          "internalType": "uint256",
          "name": "_amount",
          "type": "uint256"
        }
      ],
      "name": "withdraw",
      "outputs": [],
      "stateMutability": "nonpayable",
      "type": "function"
    },
    {
      "inputs": [
        {
          "internalType": "uint256",
          "name": "_pid",
          "type": "uint256"
        }
      ],
      "name": "emergencyWithdraw",
      "outputs": [],
      "stateMutability": "nonpayable",
      "type": "function"
    },
    {
      "inputs": [
        {
          "internalType": "address",
          "name": "_devaddr",
          "type": "address"
        }
      ],
      "name": "dev",
      "outputs": [],
      "stateMutability": "nonpayable",
      "type": "function"
    },
    {
      "inputs": [
        {
          "internalType": "address",
          "name": "_feeAddress",
          "type": "address"
        }
      ],
      "name": "setFeeAddress",
      "outputs": [],
      "stateMutability": "nonpayable",
      "type": "function"
    },
    {
      "inputs": [
        {
          "internalType": "uint256",
          "name": "_gooPerBlock",
          "type": "uint256"
        }
      ],
      "name": "updateEmissionRate",
      "outputs": [],
      "stateMutability": "nonpayable",
      "type": "function"
    }
  ],
  "bytecode": "0x608060405260006007553480156200001657600080fd5b506040516200314a3803806200314a83398181016040528101906200003c919062000249565b6200005c620000506200013860201b60201c565b6200014060201b60201c565b84600160006101000a81548173ffffffffffffffffffffffffffffffffffffffff021916908373ffffffffffffffffffffffffffffffffffffffff16021790555083600260006101000a81548173ffffffffffffffffffffffffffffffffffffffff021916908373ffffffffffffffffffffffffffffffffffffffff16021790555082600460006101000a81548173ffffffffffffffffffffffffffffffffffffffff021916908373ffffffffffffffffffffffffffffffffffffffff160217905550816003819055508060088190555050505050506200036b565b600033905090565b60008060009054906101000a900473ffffffffffffffffffffffffffffffffffffffff169050816000806101000a81548173ffffffffffffffffffffffffffffffffffffffff021916908373ffffffffffffffffffffffffffffffffffffffff1602179055508173ffffffffffffffffffffffffffffffffffffffff168173ffffffffffffffffffffffffffffffffffffffff167f8be0079c531659141344cd1fd0a4f28419497f9722a3daafe3b4186f6b6457e060405160405180910390a35050565b60008151905062000215816200031d565b92915050565b6000815190506200022c8162000337565b92915050565b600081519050620002438162000351565b92915050565b600080600080600060a086880312156200026257600080fd5b600062000272888289016200021b565b9550506020620002858882890162000204565b9450506040620002988882890162000204565b9350506060620002ab8882890162000232565b9250506080620002be8882890162000232565b9150509295509295909350565b6000620002d882620002f3565b9050919050565b6000620002ec82620002cb565b9050919050565b600073ffffffffffffffffffffffffffffffffffffffff82169050919050565b6000819050919050565b6200032881620002cb565b81146200033457600080fd5b50565b6200034281620002df565b81146200034e57600080fd5b50565b6200035c8162000313565b81146200036857600080fd5b50565b612dcf806200037b6000396000f3fe608060405234801561001057600080fd5b50600436106101735760003560e01c8063630b5ba1116100de5780638da5cb5b11610097578063d49e77cd11610071578063d49e77cd14610405578063d963842214610423578063e2bbb1581461043f578063f2fde38b1461045b57610173565b80638da5cb5b146103865780638dbb1e3a146103a457806393f1a40b146103d457610173565b8063630b5ba114610300578063715018a61461030a57806384e82a33146103145780638705fcd4146103305780638aa285501461034c5780638d88a90e1461036a57610173565b8063441a3e7011610130578063441a3e7014610240578063459e2a7e1461025c57806348cd4cb11461028c57806351eb05a6146102aa5780635312ea8e146102c65780635dae5779146102e257610173565b8063081e3eda146101785780630ba84cd2146101965780631526fe27146101b257806317caf6f1146101e6578063274cdd5c146102045780634127535814610222575b600080fd5b610180610477565b60405161018d9190612a00565b60405180910390f35b6101b060048036038101906101ab919061221b565b610484565b005b6101cc60048036038101906101c7919061221b565b610512565b6040516101dd95949392919061284b565b60405180910390f35b6101ee610586565b6040516101fb9190612a00565b60405180910390f35b61020c61058c565b6040516102199190612830565b60405180910390f35b61022a6105b2565b60405161023791906127b5565b60405180910390f35b61025a6004803603810190610255919061230c565b6105d8565b005b6102766004803603810190610271919061226d565b610830565b6040516102839190612a00565b60405180910390f35b610294610a8a565b6040516102a19190612a00565b60405180910390f35b6102c460048036038101906102bf919061221b565b610a90565b005b6102e060048036038101906102db919061221b565b610dc7565b005b6102ea610f28565b6040516102f79190612a00565b60405180910390f35b610308610f2e565b005b610312610f61565b005b61032e600480360381019061032991906122a9565b610fe9565b005b61034a600480360381019061034591906121c9565b6111ed565b005b6103546112c1565b6040516103619190612a00565b60405180910390f35b610384600480360381019061037f91906121c9565b6112c6565b005b61038e61139a565b60405161039b91906127b5565b60405180910390f35b6103be60048036038101906103b9919061230c565b6113c3565b6040516103cb9190612a00565b60405180910390f35b6103ee60048036038101906103e9919061226d565b6113f3565b6040516103fc929190612a1b565b60405180910390f35b61040d611424565b60405161041a91906127b5565b60405180910390f35b61043d60048036038101906104389190612348565b61144a565b005b6104596004803603810190610454919061230c565b611652565b005b610475600480360381019061047091906121c9565b61197c565b005b6000600580549050905090565b61048c611a74565b73ffffffffffffffffffffffffffffffffffffffff166104aa61139a565b73ffffffffffffffffffffffffffffffffffffffff1614610500576040517f08c379a00000000000000000000000000000000000000000000000000000000081526004016104f790612980565b60405180910390fd5b610508610f2e565b8060038190555050565b6005818154811061052257600080fd5b90600052602060002090600502016000915090508060000160009054906101000a900473ffffffffffffffffffffffffffffffffffffffff16908060010154908060020154908060030154908060040160009054906101000a900461ffff16905085565b60075481565b600160009054906101000a900473ffffffffffffffffffffffffffffffffffffffff1681565b600460009054906101000a900473ffffffffffffffffffffffffffffffffffffffff1681565b600060058381548110610614577f4e487b7100000000000000000000000000000000000000000000000000000000600052603260045260246000fd5b9060005260206000209060050201905060006006600085815260200190815260200160002060003373ffffffffffffffffffffffffffffffffffffffff1673ffffffffffffffffffffffffffffffffffffffff168152602001908152602001600020905082816000015410156106bf576040517f08c379a00000000000000000000000000000000000000000000000000000000081526004016106b6906129c0565b60405180910390fd5b6106c884610a90565b6000610712826001015461070464e8d4a510006106f687600301548760000154611a7c90919063ffffffff16565b611a9290919063ffffffff16565b611aa890919063ffffffff16565b90506000811115610728576107273382611abe565b5b60008411156107a057610748848360000154611aa890919063ffffffff16565b826000018190555061079f33858560000160009054906101000a900473ffffffffffffffffffffffffffffffffffffffff1673ffffffffffffffffffffffffffffffffffffffff16611ce09092919063ffffffff16565b5b6107d264e8d4a510006107c485600301548560000154611a7c90919063ffffffff16565b611a9290919063ffffffff16565b8260010181905550843373ffffffffffffffffffffffffffffffffffffffff167ff279e6a1f5e320cca91135676d9cb6e44ca8a08c0b88342bcdb1144f6511b568866040516108219190612a00565b60405180910390a35050505050565b6000806005848154811061086d577f4e487b7100000000000000000000000000000000000000000000000000000000600052603260045260246000fd5b9060005260206000209060050201905060006006600086815260200190815260200160002060008573ffffffffffffffffffffffffffffffffffffffff1673ffffffffffffffffffffffffffffffffffffffff168152602001908152602001600020905060008260030154905060008360000160009054906101000a900473ffffffffffffffffffffffffffffffffffffffff1673ffffffffffffffffffffffffffffffffffffffff166370a08231306040518263ffffffff1660e01b815260040161093991906127b5565b60206040518083038186803b15801561095157600080fd5b505afa158015610965573d6000803e3d6000fd5b505050506040513d601f19601f820116820180604052508101906109899190612244565b905083600201544311801561099f575060008114155b15610a3a5760006109b48560020154436113c3565b905060006109f76007546109e988600101546109db60035487611a7c90919063ffffffff16565b611a7c90919063ffffffff16565b611a9290919063ffffffff16565b9050610a35610a2684610a1864e8d4a5100085611a7c90919063ffffffff16565b611a9290919063ffffffff16565b85611d6690919063ffffffff16565b935050505b610a7e8360010154610a7064e8d4a51000610a62868860000154611a7c90919063ffffffff16565b611a9290919063ffffffff16565b611aa890919063ffffffff16565b94505050505092915050565b60085481565b600060058281548110610acc577f4e487b7100000000000000000000000000000000000000000000000000000000600052603260045260246000fd5b9060005260206000209060050201905080600201544311610aed5750610dc4565b60008160000160009054906101000a900473ffffffffffffffffffffffffffffffffffffffff1673ffffffffffffffffffffffffffffffffffffffff166370a08231306040518263ffffffff1660e01b8152600401610b4c91906127b5565b60206040518083038186803b158015610b6457600080fd5b505afa158015610b78573d6000803e3d6000fd5b505050506040513d601f19601f82011682018060405250810190610b9c9190612244565b90506000811480610bb1575060008260010154145b15610bc6574382600201819055505050610dc4565b6000610bd68360020154436113c3565b90506000610c19600754610c0b8660010154610bfd60035487611a7c90919063ffffffff16565b611a7c90919063ffffffff16565b611a9290919063ffffffff16565b9050600160009054906101000a900473ffffffffffffffffffffffffffffffffffffffff1673ffffffffffffffffffffffffffffffffffffffff166340c10f19600260009054906101000a900473ffffffffffffffffffffffffffffffffffffffff16610c90600a85611a9290919063ffffffff16565b6040518363ffffffff1660e01b8152600401610cad929190612807565b600060405180830381600087803b158015610cc757600080fd5b505af1158015610cdb573d6000803e3d6000fd5b50505050600160009054906101000a900473ffffffffffffffffffffffffffffffffffffffff1673ffffffffffffffffffffffffffffffffffffffff166340c10f1930836040518363ffffffff1660e01b8152600401610d3c929190612807565b600060405180830381600087803b158015610d5657600080fd5b505af1158015610d6a573d6000803e3d6000fd5b50505050610dae610d9b84610d8d64e8d4a5100085611a7c90919063ffffffff16565b611a9290919063ffffffff16565b8560030154611d6690919063ffffffff16565b8460030181905550438460020181905550505050505b50565b600060058281548110610e03577f4e487b7100000000000000000000000000000000000000000000000000000000600052603260045260246000fd5b9060005260206000209060050201905060006006600084815260200190815260200160002060003373ffffffffffffffffffffffffffffffffffffffff1673ffffffffffffffffffffffffffffffffffffffff16815260200190815260200160002090506000816000015490506000826000018190555060008260010181905550610ed333828560000160009054906101000a900473ffffffffffffffffffffffffffffffffffffffff1673ffffffffffffffffffffffffffffffffffffffff16611ce09092919063ffffffff16565b833373ffffffffffffffffffffffffffffffffffffffff167fbb757047c2b5f3974fe26b7c10f732e7bce710b0952a71082702781e62ae059583604051610f1a9190612a00565b60405180910390a350505050565b60035481565b6000600580549050905060005b81811015610f5d57610f4c81610a90565b80610f5690612c6e565b9050610f3b565b5050565b610f69611a74565b73ffffffffffffffffffffffffffffffffffffffff16610f8761139a565b73ffffffffffffffffffffffffffffffffffffffff1614610fdd576040517f08c379a0000000000000000000000000000000000000000000000000000000008152600401610fd490612980565b60405180910390fd5b610fe76000611d7c565b565b610ff1611a74565b73ffffffffffffffffffffffffffffffffffffffff1661100f61139a565b73ffffffffffffffffffffffffffffffffffffffff1614611065576040517f08c379a000000000000000000000000000000000000000000000000000000000815260040161105c90612980565b60405180910390fd5b6127108261ffff1611156110ae576040517f08c379a00000000000000000000000000000000000000000000000000000000081526004016110a5906128c0565b60405180910390fd5b80156110bd576110bc610f2e565b5b600060085443116110d0576008546110d2565b435b90506110e985600754611d6690919063ffffffff16565b60078190555060056040518060a001604052808673ffffffffffffffffffffffffffffffffffffffff168152602001878152602001838152602001600081526020018561ffff16815250908060018154018082558091505060019003906000526020600020906005020160009091909190915060008201518160000160006101000a81548173ffffffffffffffffffffffffffffffffffffffff021916908373ffffffffffffffffffffffffffffffffffffffff16021790555060208201518160010155604082015181600201556060820151816003015560808201518160040160006101000a81548161ffff021916908361ffff16021790555050505050505050565b600460009054906101000a900473ffffffffffffffffffffffffffffffffffffffff1673ffffffffffffffffffffffffffffffffffffffff163373ffffffffffffffffffffffffffffffffffffffff161461127d576040517f08c379a0000000000000000000000000000000000000000000000000000000008152600401611274906129e0565b60405180910390fd5b80600460006101000a81548173ffffffffffffffffffffffffffffffffffffffff021916908373ffffffffffffffffffffffffffffffffffffffff16021790555050565b600181565b600260009054906101000a900473ffffffffffffffffffffffffffffffffffffffff1673ffffffffffffffffffffffffffffffffffffffff163373ffffffffffffffffffffffffffffffffffffffff1614611356576040517f08c379a000000000000000000000000000000000000000000000000000000000815260040161134d90612940565b60405180910390fd5b80600260006101000a81548173ffffffffffffffffffffffffffffffffffffffff021916908373ffffffffffffffffffffffffffffffffffffffff16021790555050565b60008060009054906101000a900473ffffffffffffffffffffffffffffffffffffffff16905090565b60006113eb60016113dd8585611aa890919063ffffffff16565b611a7c90919063ffffffff16565b905092915050565b6006602052816000526040600020602052806000526040600020600091509150508060000154908060010154905082565b600260009054906101000a900473ffffffffffffffffffffffffffffffffffffffff1681565b611452611a74565b73ffffffffffffffffffffffffffffffffffffffff1661147061139a565b73ffffffffffffffffffffffffffffffffffffffff16146114c6576040517f08c379a00000000000000000000000000000000000000000000000000000000081526004016114bd90612980565b60405180910390fd5b6127108261ffff16111561150f576040517f08c379a000000000000000000000000000000000000000000000000000000000815260040161150690612960565b60405180910390fd5b801561151e5761151d610f2e565b5b611590836115826005878154811061155f577f4e487b7100000000000000000000000000000000000000000000000000000000600052603260045260246000fd5b906000526020600020906005020160010154600754611aa890919063ffffffff16565b611d6690919063ffffffff16565b60078190555082600585815481106115d1577f4e487b7100000000000000000000000000000000000000000000000000000000600052603260045260246000fd5b9060005260206000209060050201600101819055508160058581548110611621577f4e487b7100000000000000000000000000000000000000000000000000000000600052603260045260246000fd5b906000526020600020906005020160040160006101000a81548161ffff021916908361ffff16021790555050505050565b60006005838154811061168e577f4e487b7100000000000000000000000000000000000000000000000000000000600052603260045260246000fd5b9060005260206000209060050201905060006006600085815260200190815260200160002060003373ffffffffffffffffffffffffffffffffffffffff1673ffffffffffffffffffffffffffffffffffffffff16815260200190815260200160002090506116fb84610a90565b60008160000154111561176a576000611752826001015461174464e8d4a5100061173687600301548760000154611a7c90919063ffffffff16565b611a9290919063ffffffff16565b611aa890919063ffffffff16565b90506000811115611768576117673382611abe565b5b505b60008311156118ed576117c43330858560000160009054906101000a900473ffffffffffffffffffffffffffffffffffffffff1673ffffffffffffffffffffffffffffffffffffffff16611e40909392919063ffffffff16565b60008260040160009054906101000a900461ffff1661ffff1611156118cc5760006118226127106118148560040160009054906101000a900461ffff1661ffff1687611a7c90919063ffffffff16565b611a9290919063ffffffff16565b9050611895600460009054906101000a900473ffffffffffffffffffffffffffffffffffffffff16828560000160009054906101000a900473ffffffffffffffffffffffffffffffffffffffff1673ffffffffffffffffffffffffffffffffffffffff16611ce09092919063ffffffff16565b6118be816118b0868560000154611d6690919063ffffffff16565b611aa890919063ffffffff16565b8260000181905550506118ec565b6118e3838260000154611d6690919063ffffffff16565b81600001819055505b5b61191f64e8d4a5100061191184600301548460000154611a7c90919063ffffffff16565b611a9290919063ffffffff16565b8160010181905550833373ffffffffffffffffffffffffffffffffffffffff167f90890809c654f11d6e72a28fa60149770a0d11ec6c92319d6ceb2bb0a4ea1a158560405161196e9190612a00565b60405180910390a350505050565b611984611a74565b73ffffffffffffffffffffffffffffffffffffffff166119a261139a565b73ffffffffffffffffffffffffffffffffffffffff16146119f8576040517f08c379a00000000000000000000000000000000000000000000000000000000081526004016119ef90612980565b60405180910390fd5b600073ffffffffffffffffffffffffffffffffffffffff168173ffffffffffffffffffffffffffffffffffffffff161415611a68576040517f08c379a0000000000000000000000000000000000000000000000000000000008152600401611a5f90612900565b60405180910390fd5b611a7181611d7c565b50565b600033905090565b60008183611a8a9190612afd565b905092915050565b60008183611aa09190612acc565b905092915050565b60008183611ab69190612b57565b905092915050565b6000600160009054906101000a900473ffffffffffffffffffffffffffffffffffffffff1673ffffffffffffffffffffffffffffffffffffffff166370a08231306040518263ffffffff1660e01b8152600401611b1b91906127b5565b60206040518083038186803b158015611b3357600080fd5b505afa158015611b47573d6000803e3d6000fd5b505050506040513d601f19601f82011682018060405250810190611b6b9190612244565b905080821115611c2a57600160009054906101000a900473ffffffffffffffffffffffffffffffffffffffff1673ffffffffffffffffffffffffffffffffffffffff1663a9059cbb84836040518363ffffffff1660e01b8152600401611bd2929190612807565b602060405180830381600087803b158015611bec57600080fd5b505af1158015611c00573d6000803e3d6000fd5b505050506040513d601f19601f82011682018060405250810190611c2491906121f2565b50611cdb565b600160009054906101000a900473ffffffffffffffffffffffffffffffffffffffff1673ffffffffffffffffffffffffffffffffffffffff1663a9059cbb84846040518363ffffffff1660e01b8152600401611c87929190612807565b602060405180830381600087803b158015611ca157600080fd5b505af1158015611cb5573d6000803e3d6000fd5b505050506040513d601f19601f82011682018060405250810190611cd991906121f2565b505b505050565b611d618363a9059cbb60e01b8484604051602401611cff929190612807565b604051602081830303815290604052907bffffffffffffffffffffffffffffffffffffffffffffffffffffffff19166020820180517bffffffffffffffffffffffffffffffffffffffffffffffffffffffff8381831617835250505050611ec9565b505050565b60008183611d749190612a76565b905092915050565b60008060009054906101000a900473ffffffffffffffffffffffffffffffffffffffff169050816000806101000a81548173ffffffffffffffffffffffffffffffffffffffff021916908373ffffffffffffffffffffffffffffffffffffffff1602179055508173ffffffffffffffffffffffffffffffffffffffff168173ffffffffffffffffffffffffffffffffffffffff167f8be0079c531659141344cd1fd0a4f28419497f9722a3daafe3b4186f6b6457e060405160405180910390a35050565b611ec3846323b872dd60e01b858585604051602401611e61939291906127d0565b604051602081830303815290604052907bffffffffffffffffffffffffffffffffffffffffffffffffffffffff19166020820180517bffffffffffffffffffffffffffffffffffffffffffffffffffffffff8381831617835250505050611ec9565b50505050565b6000611f2b826040518060400160405280602081526020017f5361666542455032303a206c6f772d6c6576656c2063616c6c206661696c65648152508573ffffffffffffffffffffffffffffffffffffffff16611f909092919063ffffffff16565b9050600081511115611f8b5780806020019051810190611f4b91906121f2565b611f8a576040517f08c379a0000000000000000000000000000000000000000000000000000000008152600401611f81906128e0565b60405180910390fd5b5b505050565b6060611f9f8484600085611fa8565b90509392505050565b606082471015611fed576040517f08c379a0000000000000000000000000000000000000000000000000000000008152600401611fe490612920565b60405180910390fd5b611ff6856120bc565b612035576040517f08c379a000000000000000000000000000000000000000000000000000000000815260040161202c906129a0565b60405180910390fd5b6000808673ffffffffffffffffffffffffffffffffffffffff16858760405161205e919061279e565b60006040518083038185875af1925050503d806000811461209b576040519150601f19603f3d011682016040523d82523d6000602084013e6120a0565b606091505b50915091506120b08282866120cf565b92505050949350505050565b600080823b905060008111915050919050565b606083156120df5782905061212f565b6000835111156120f25782518084602001fd5b816040517f08c379a0000000000000000000000000000000000000000000000000000000008152600401612126919061289e565b60405180910390fd5b9392505050565b60008135905061214581612d26565b92915050565b60008135905061215a81612d3d565b92915050565b60008151905061216f81612d3d565b92915050565b60008135905061218481612d54565b92915050565b60008135905061219981612d6b565b92915050565b6000813590506121ae81612d82565b92915050565b6000815190506121c381612d82565b92915050565b6000602082840312156121db57600080fd5b60006121e984828501612136565b91505092915050565b60006020828403121561220457600080fd5b600061221284828501612160565b91505092915050565b60006020828403121561222d57600080fd5b600061223b8482850161219f565b91505092915050565b60006020828403121561225657600080fd5b6000612264848285016121b4565b91505092915050565b6000806040838503121561228057600080fd5b600061228e8582860161219f565b925050602061229f85828601612136565b9150509250929050565b600080600080608085870312156122bf57600080fd5b60006122cd8782880161219f565b94505060206122de87828801612175565b93505060406122ef8782880161218a565b92505060606123008782880161214b565b91505092959194509250565b6000806040838503121561231f57600080fd5b600061232d8582860161219f565b925050602061233e8582860161219f565b9150509250929050565b6000806000806080858703121561235e57600080fd5b600061236c8782880161219f565b945050602061237d8782880161219f565b935050604061238e8782880161218a565b925050606061239f8782880161214b565b91505092959194509250565b6123b481612b8b565b82525050565b60006123c582612a44565b6123cf8185612a5a565b93506123df818560208601612c3b565b80840191505092915050565b6123f481612bf3565b82525050565b61240381612c17565b82525050565b600061241482612a4f565b61241e8185612a65565b935061242e818560208601612c3b565b61243781612d15565b840191505092915050565b600061244f602583612a65565b91507f6164643a20696e76616c6964206465706f73697420666565206261736973207060008301527f6f696e74730000000000000000000000000000000000000000000000000000006020830152604082019050919050565b60006124b5602a83612a65565b91507f5361666542455032303a204245503230206f7065726174696f6e20646964206e60008301527f6f742073756363656564000000000000000000000000000000000000000000006020830152604082019050919050565b600061251b602683612a65565b91507f4f776e61626c653a206e6577206f776e657220697320746865207a65726f206160008301527f64647265737300000000000000000000000000000000000000000000000000006020830152604082019050919050565b6000612581602683612a65565b91507f416464726573733a20696e73756666696369656e742062616c616e636520666f60008301527f722063616c6c00000000000000000000000000000000000000000000000000006020830152604082019050919050565b60006125e7600983612a65565b91507f6465763a207775743f00000000000000000000000000000000000000000000006000830152602082019050919050565b6000612627602583612a65565b91507f7365743a20696e76616c6964206465706f73697420666565206261736973207060008301527f6f696e74730000000000000000000000000000000000000000000000000000006020830152604082019050919050565b600061268d602083612a65565b91507f4f776e61626c653a2063616c6c6572206973206e6f7420746865206f776e65726000830152602082019050919050565b60006126cd601d83612a65565b91507f416464726573733a2063616c6c20746f206e6f6e2d636f6e74726163740000006000830152602082019050919050565b600061270d601283612a65565b91507f77697468647261773a206e6f7420676f6f6400000000000000000000000000006000830152602082019050919050565b600061274d601883612a65565b91507f736574466565416464726573733a20464f5242494444454e00000000000000006000830152602082019050919050565b61278981612bbb565b82525050565b61279881612be9565b82525050565b60006127aa82846123ba565b915081905092915050565b60006020820190506127ca60008301846123ab565b92915050565b60006060820190506127e560008301866123ab565b6127f260208301856123ab565b6127ff604083018461278f565b949350505050565b600060408201905061281c60008301856123ab565b612829602083018461278f565b9392505050565b600060208201905061284560008301846123eb565b92915050565b600060a08201905061286060008301886123fa565b61286d602083018761278f565b61287a604083018661278f565b612887606083018561278f565b6128946080830184612780565b9695505050505050565b600060208201905081810360008301526128b88184612409565b905092915050565b600060208201905081810360008301526128d981612442565b9050919050565b600060208201905081810360008301526128f9816124a8565b9050919050565b600060208201905081810360008301526129198161250e565b9050919050565b6000602082019050818103600083015261293981612574565b9050919050565b60006020820190508181036000830152612959816125da565b9050919050565b600060208201905081810360008301526129798161261a565b9050919050565b6000602082019050818103600083015261299981612680565b9050919050565b600060208201905081810360008301526129b9816126c0565b9050919050565b600060208201905081810360008301526129d981612700565b9050919050565b600060208201905081810360008301526129f981612740565b9050919050565b6000602082019050612a15600083018461278f565b92915050565b6000604082019050612a30600083018561278f565b612a3d602083018461278f565b9392505050565b600081519050919050565b600081519050919050565b600081905092915050565b600082825260208201905092915050565b6000612a8182612be9565b9150612a8c83612be9565b9250827fffffffffffffffffffffffffffffffffffffffffffffffffffffffffffffffff03821115612ac157612ac0612cb7565b5b828201905092915050565b6000612ad782612be9565b9150612ae283612be9565b925082612af257612af1612ce6565b5b828204905092915050565b6000612b0882612be9565b9150612b1383612be9565b9250817fffffffffffffffffffffffffffffffffffffffffffffffffffffffffffffffff0483118215151615612b4c57612b4b612cb7565b5b828202905092915050565b6000612b6282612be9565b9150612b6d83612be9565b925082821015612b8057612b7f612cb7565b5b828203905092915050565b6000612b9682612bc9565b9050919050565b60008115159050919050565b6000612bb482612b8b565b9050919050565b600061ffff82169050919050565b600073ffffffffffffffffffffffffffffffffffffffff82169050919050565b6000819050919050565b6000612bfe82612c05565b9050919050565b6000612c1082612bc9565b9050919050565b6000612c2282612c29565b9050919050565b6000612c3482612bc9565b9050919050565b60005b83811015612c59578082015181840152602081019050612c3e565b83811115612c68576000848401525b50505050565b6000612c7982612be9565b91507fffffffffffffffffffffffffffffffffffffffffffffffffffffffffffffffff821415612cac57612cab612cb7565b5b600182019050919050565b7f4e487b7100000000000000000000000000000000000000000000000000000000600052601160045260246000fd5b7f4e487b7100000000000000000000000000000000000000000000000000000000600052601260045260246000fd5b6000601f19601f8301169050919050565b612d2f81612b8b565b8114612d3a57600080fd5b50565b612d4681612b9d565b8114612d5157600080fd5b50565b612d5d81612ba9565b8114612d6857600080fd5b50565b612d7481612bbb565b8114612d7f57600080fd5b50565b612d8b81612be9565b8114612d9657600080fd5b5056fea26469706673582212203bbd8a8c39cad96853c1c4d2a765de0588d6d72983cee1e41888e31ab2660f4a64736f6c63430008000033",
  "immutableReferences": {},
  "source": "// SPDX-License-Identifier: MIT\n\npragma solidity 0.8.0;\n\nimport \"@openzeppelin/contracts/utils/math/SafeMath.sol\";\nimport \"./libs/IBEP20.sol\";\nimport \"./libs/SafeBEP20.sol\";\nimport \"@openzeppelin/contracts/access/Ownable.sol\";\n\nimport \"./EBIToken.sol\";\n\n// MasterChef is the master of Goo. He can make Goo and he is a fair guy.\n//\n// Note that it's ownable and the owner wields tremendous power. The ownership\n// will be transferred to a governance smart contract once EGG is sufficiently\n// distributed and the community can show to govern itself.\n//\n// Have fun reading it. Hopefully it's bug-free. God bless.\ncontract MasterChef is Ownable {\n    using SafeMath for uint256;\n    using SafeBEP20 for IBEP20;\n\n    // Info of each user.\n    struct UserInfo {\n        uint256 amount;         // How many LP tokens the user has provided.\n        uint256 rewardDebt;     // Reward debt. See explanation below.\n        //\n        // We do some fancy math here. Basically, any point in time, the amount of EGGs\n        // entitled to a user but is pending to be distributed is:\n        //\n        //   pending reward = (user.amount * pool.accGooPerShare) - user.rewardDebt\n        //\n        // Whenever a user deposits or withdraws LP tokens to a pool. Here's what happens:\n        //   1. The pool's `accGooPerShare` (and `lastRewardBlock`) gets updated.\n        //   2. User receives the pending reward sent to his/her address.\n        //   3. User's `amount` gets updated.\n        //   4. User's `rewardDebt` gets updated.\n    }\n\n    // Info of each pool.\n    struct PoolInfo {\n        IBEP20 lpToken;           // Address of LP token contract.\n        uint256 allocPoint;       // How many allocation points assigned to this pool. EGGs to distribute per block.\n        uint256 lastRewardBlock;  // Last block number that EGGs distribution occurs.\n        uint256 accGooPerShare;   // Accumulated EGGs per share, times 1e12. See below.\n        uint16 depositFeeBP;      // Deposit fee in basis points\n    }\n\n    // The EGG TOKEN!\n    EBIToken public goo;\n    // Dev address.\n    address public devaddr;\n    // EGG tokens created per block.\n    uint256 public gooPerBlock;\n    // Bonus muliplier for early goo makers.\n    uint256 public constant BONUS_MULTIPLIER = 1;\n    // Deposit Fee address\n    address public feeAddress;\n\n    // Info of each pool.\n    PoolInfo[] public poolInfo;\n    // Info of each user that stakes LP tokens.\n    mapping (uint256 => mapping (address => UserInfo)) public userInfo;\n    // Total allocation points. Must be the sum of all allocation points in all pools.\n    uint256 public totalAllocPoint = 0;\n    // The block number when EGG mining starts.\n    uint256 public startBlock;\n\n    event Deposit(address indexed user, uint256 indexed pid, uint256 amount);\n    event Withdraw(address indexed user, uint256 indexed pid, uint256 amount);\n    event EmergencyWithdraw(address indexed user, uint256 indexed pid, uint256 amount);\n\n    constructor(\n        EBIToken _goo,\n        address _devaddr,\n        address _feeAddress,\n        uint256 _gooPerBlock,\n        uint256 _startBlock\n    ) public {\n        goo = _goo;\n        devaddr = _devaddr;\n        feeAddress = _feeAddress;\n        gooPerBlock = _gooPerBlock;\n        startBlock = _startBlock;\n    }\n\n    function poolLength() external view returns (uint256) {\n        return poolInfo.length;\n    }\n\n    // Add a new lp to the pool. Can only be called by the owner.\n    // XXX DO NOT add the same LP token more than once. Rewards will be messed up if you do.\n    function add(uint256 _allocPoint, IBEP20 _lpToken, uint16 _depositFeeBP, bool _withUpdate) public onlyOwner {\n        require(_depositFeeBP <= 10000, \"add: invalid deposit fee basis points\");\n        if (_withUpdate) {\n            massUpdatePools();\n        }\n        uint256 lastRewardBlock = block.number > startBlock ? block.number : startBlock;\n        totalAllocPoint = totalAllocPoint.add(_allocPoint);\n        poolInfo.push(PoolInfo({\n            lpToken: _lpToken,\n            allocPoint: _allocPoint,\n            lastRewardBlock: lastRewardBlock,\n            accGooPerShare: 0,\n            depositFeeBP: _depositFeeBP\n        }));\n    }\n\n    // Update the given pool's EGG allocation point and deposit fee. Can only be called by the owner.\n    function set(uint256 _pid, uint256 _allocPoint, uint16 _depositFeeBP, bool _withUpdate) public onlyOwner {\n        require(_depositFeeBP <= 10000, \"set: invalid deposit fee basis points\");\n        if (_withUpdate) {\n            massUpdatePools();\n        }\n        totalAllocPoint = totalAllocPoint.sub(poolInfo[_pid].allocPoint).add(_allocPoint);\n        poolInfo[_pid].allocPoint = _allocPoint;\n        poolInfo[_pid].depositFeeBP = _depositFeeBP;\n    }\n\n    // Return reward multiplier over the given _from to _to block.\n    function getMultiplier(uint256 _from, uint256 _to) public view returns (uint256) {\n        return _to.sub(_from).mul(BONUS_MULTIPLIER);\n    }\n\n    // View function to see pending EGGs on frontend.\n    function pendingGoo(uint256 _pid, address _user) external view returns (uint256) {\n        PoolInfo storage pool = poolInfo[_pid];\n        UserInfo storage user = userInfo[_pid][_user];\n        uint256 accGooPerShare = pool.accGooPerShare;\n        uint256 lpSupply = pool.lpToken.balanceOf(address(this));\n        if (block.number > pool.lastRewardBlock && lpSupply != 0) {\n            uint256 multiplier = getMultiplier(pool.lastRewardBlock, block.number);\n            uint256 gooReward = multiplier.mul(gooPerBlock).mul(pool.allocPoint).div(totalAllocPoint);\n            accGooPerShare = accGooPerShare.add(gooReward.mul(1e12).div(lpSupply));\n        }\n        return user.amount.mul(accGooPerShare).div(1e12).sub(user.rewardDebt);\n    }\n\n    // Update reward variables for all pools. Be careful of gas spending!\n    function massUpdatePools() public {\n        uint256 length = poolInfo.length;\n        for (uint256 pid = 0; pid < length; ++pid) {\n            updatePool(pid);\n        }\n    }\n\n    // Update reward variables of the given pool to be up-to-date.\n    function updatePool(uint256 _pid) public {\n        PoolInfo storage pool = poolInfo[_pid];\n        if (block.number <= pool.lastRewardBlock) {\n            return;\n        }\n        uint256 lpSupply = pool.lpToken.balanceOf(address(this));\n        if (lpSupply == 0 || pool.allocPoint == 0) {\n            pool.lastRewardBlock = block.number;\n            return;\n        }\n        uint256 multiplier = getMultiplier(pool.lastRewardBlock, block.number);\n        uint256 gooReward = multiplier.mul(gooPerBlock).mul(pool.allocPoint).div(totalAllocPoint);\n        goo.mint(devaddr, gooReward.div(10));\n        goo.mint(address(this), gooReward);\n        pool.accGooPerShare = pool.accGooPerShare.add(gooReward.mul(1e12).div(lpSupply));\n        pool.lastRewardBlock = block.number;\n    }\n\n    // Deposit LP tokens to MasterChef for EGG allocation.\n    function deposit(uint256 _pid, uint256 _amount) public {\n        PoolInfo storage pool = poolInfo[_pid];\n        UserInfo storage user = userInfo[_pid][msg.sender];\n        updatePool(_pid);\n        if (user.amount > 0) {\n            uint256 pending = user.amount.mul(pool.accGooPerShare).div(1e12).sub(user.rewardDebt);\n            if(pending > 0) {\n                safeGooTransfer(msg.sender, pending);\n            }\n        }\n        if(_amount > 0) {\n            pool.lpToken.safeTransferFrom(address(msg.sender), address(this), _amount);\n            if(pool.depositFeeBP > 0){\n                uint256 depositFee = _amount.mul(pool.depositFeeBP).div(10000);\n                pool.lpToken.safeTransfer(feeAddress, depositFee);\n                user.amount = user.amount.add(_amount).sub(depositFee);\n            }else{\n                user.amount = user.amount.add(_amount);\n            }\n        }\n        user.rewardDebt = user.amount.mul(pool.accGooPerShare).div(1e12);\n        emit Deposit(msg.sender, _pid, _amount);\n    }\n\n    // Withdraw LP tokens from MasterChef.\n    function withdraw(uint256 _pid, uint256 _amount) public {\n        PoolInfo storage pool = poolInfo[_pid];\n        UserInfo storage user = userInfo[_pid][msg.sender];\n        require(user.amount >= _amount, \"withdraw: not good\");\n        updatePool(_pid);\n        uint256 pending = user.amount.mul(pool.accGooPerShare).div(1e12).sub(user.rewardDebt);\n        if(pending > 0) {\n            safeGooTransfer(msg.sender, pending);\n        }\n        if(_amount > 0) {\n            user.amount = user.amount.sub(_amount);\n            pool.lpToken.safeTransfer(address(msg.sender), _amount);\n        }\n        user.rewardDebt = user.amount.mul(pool.accGooPerShare).div(1e12);\n        emit Withdraw(msg.sender, _pid, _amount);\n    }\n\n    // Withdraw without caring about rewards. EMERGENCY ONLY.\n    function emergencyWithdraw(uint256 _pid) public {\n        PoolInfo storage pool = poolInfo[_pid];\n        UserInfo storage user = userInfo[_pid][msg.sender];\n        uint256 amount = user.amount;\n        user.amount = 0;\n        user.rewardDebt = 0;\n        pool.lpToken.safeTransfer(address(msg.sender), amount);\n        emit EmergencyWithdraw(msg.sender, _pid, amount);\n    }\n\n    // Safe goo transfer function, just in case if rounding error causes pool to not have enough EGGs.\n    function safeGooTransfer(address _to, uint256 _amount) internal {\n        uint256 gooBal = goo.balanceOf(address(this));\n        if (_amount > gooBal) {\n            goo.transfer(_to, gooBal);\n        } else {\n            goo.transfer(_to, _amount);\n        }\n    }\n\n    // Update dev address by the previous dev.\n    function dev(address _devaddr) public {\n        require(msg.sender == devaddr, \"dev: wut?\");\n        devaddr = _devaddr;\n    }\n\n    function setFeeAddress(address _feeAddress) public{\n        require(msg.sender == feeAddress, \"setFeeAddress: FORBIDDEN\");\n        feeAddress = _feeAddress;\n    }\n\n    //Pancake has to add hidden dummy pools inorder to alter the emission, here we make it simple and transparent to all.\n    function updateEmissionRate(uint256 _gooPerBlock) public onlyOwner {\n        massUpdatePools();\n        gooPerBlock = _gooPerBlock;\n    }\n}\n",
  "sourcePath": "/Users/anilkucukrecep/Code/Personal/defi-contracts/contracts/MasterChef.sol",
  "compiler": {
    "name": "solc",
    "version": "0.8.0+commit.c7dfd78e.Emscripten.clang"
  },
  "schemaVersion": "3.4.3",
  "updatedAt": "2021-08-14T14:29:55.714Z",
  "devdoc": {
    "kind": "dev",
    "methods": {
      "owner()": {
        "details": "Returns the address of the current owner."
      },
      "renounceOwnership()": {
        "details": "Leaves the contract without owner. It will not be possible to call `onlyOwner` functions anymore. Can only be called by the current owner. NOTE: Renouncing ownership will leave the contract without an owner, thereby removing any functionality that is only available to the owner."
      },
      "transferOwnership(address)": {
        "details": "Transfers ownership of the contract to a new account (`newOwner`). Can only be called by the current owner."
      }
    },
    "version": 1
  },
  "userdoc": {
    "kind": "user",
    "methods": {},
    "version": 1
  }
}