{
  "contractName": "MasterChefV2",
  "abi": [
    {
      "inputs": [
        {
          "internalType": "contract EBIToken",
          "name": "_ebi",
          "type": "address"
        },
        {
          "internalType": "address",
          "name": "_devaddr",
          "type": "address"
        },
        {
          "internalType": "address",
          "name": "_feeAddress",
          "type": "address"
        },
        {
          "internalType": "uint256",
          "name": "_ebiPerBlock",
          "type": "uint256"
        },
        {
          "internalType": "uint256",
          "name": "_startBlock",
          "type": "uint256"
        }
      ],
      "stateMutability": "nonpayable",
      "type": "constructor"
    },
    {
      "anonymous": false,
      "inputs": [
        {
          "indexed": true,
          "internalType": "address",
          "name": "user",
          "type": "address"
        },
        {
          "indexed": true,
          "internalType": "uint256",
          "name": "pid",
          "type": "uint256"
        },
        {
          "indexed": false,
          "internalType": "uint256",
          "name": "amount",
          "type": "uint256"
        }
      ],
      "name": "Deposit",
      "type": "event"
    },
    {
      "anonymous": false,
      "inputs": [
        {
          "indexed": true,
          "internalType": "address",
          "name": "user",
          "type": "address"
        },
        {
          "indexed": true,
          "internalType": "uint256",
          "name": "pid",
          "type": "uint256"
        },
        {
          "indexed": false,
          "internalType": "uint256",
          "name": "amount",
          "type": "uint256"
        }
      ],
      "name": "EmergencyWithdraw",
      "type": "event"
    },
    {
      "anonymous": false,
      "inputs": [
        {
          "indexed": true,
          "internalType": "address",
          "name": "previousOwner",
          "type": "address"
        },
        {
          "indexed": true,
          "internalType": "address",
          "name": "newOwner",
          "type": "address"
        }
      ],
      "name": "OwnershipTransferred",
      "type": "event"
    },
    {
      "anonymous": false,
      "inputs": [
        {
          "indexed": true,
          "internalType": "address",
          "name": "user",
          "type": "address"
        },
        {
          "indexed": true,
          "internalType": "address",
          "name": "newAddress",
          "type": "address"
        }
      ],
      "name": "SetDevAddress",
      "type": "event"
    },
    {
      "anonymous": false,
      "inputs": [
        {
          "indexed": true,
          "internalType": "address",
          "name": "user",
          "type": "address"
        },
        {
          "indexed": true,
          "internalType": "address",
          "name": "newAddress",
          "type": "address"
        }
      ],
      "name": "SetFeeAddress",
      "type": "event"
    },
    {
      "anonymous": false,
      "inputs": [
        {
          "indexed": true,
          "internalType": "address",
          "name": "user",
          "type": "address"
        },
        {
          "indexed": false,
          "internalType": "uint256",
          "name": "goosePerBlock",
          "type": "uint256"
        }
      ],
      "name": "UpdateEmissionRate",
      "type": "event"
    },
    {
      "anonymous": false,
      "inputs": [
        {
          "indexed": true,
          "internalType": "address",
          "name": "user",
          "type": "address"
        },
        {
          "indexed": true,
          "internalType": "uint256",
          "name": "pid",
          "type": "uint256"
        },
        {
          "indexed": false,
          "internalType": "uint256",
          "name": "amount",
          "type": "uint256"
        }
      ],
      "name": "Withdraw",
      "type": "event"
    },
    {
      "inputs": [],
      "name": "BONUS_MULTIPLIER",
      "outputs": [
        {
          "internalType": "uint256",
          "name": "",
          "type": "uint256"
        }
      ],
      "stateMutability": "view",
      "type": "function"
    },
    {
      "inputs": [],
      "name": "devaddr",
      "outputs": [
        {
          "internalType": "address",
          "name": "",
          "type": "address"
        }
      ],
      "stateMutability": "view",
      "type": "function"
    },
    {
      "inputs": [],
      "name": "ebi",
      "outputs": [
        {
          "internalType": "contract EBIToken",
          "name": "",
          "type": "address"
        }
      ],
      "stateMutability": "view",
      "type": "function"
    },
    {
      "inputs": [],
      "name": "ebiPerBlock",
      "outputs": [
        {
          "internalType": "uint256",
          "name": "",
          "type": "uint256"
        }
      ],
      "stateMutability": "view",
      "type": "function"
    },
    {
      "inputs": [],
      "name": "feeAddress",
      "outputs": [
        {
          "internalType": "address",
          "name": "",
          "type": "address"
        }
      ],
      "stateMutability": "view",
      "type": "function"
    },
    {
      "inputs": [],
      "name": "owner",
      "outputs": [
        {
          "internalType": "address",
          "name": "",
          "type": "address"
        }
      ],
      "stateMutability": "view",
      "type": "function"
    },
    {
      "inputs": [
        {
          "internalType": "contract IBEP20",
          "name": "",
          "type": "address"
        }
      ],
      "name": "poolExistence",
      "outputs": [
        {
          "internalType": "bool",
          "name": "",
          "type": "bool"
        }
      ],
      "stateMutability": "view",
      "type": "function"
    },
    {
      "inputs": [
        {
          "internalType": "uint256",
          "name": "",
          "type": "uint256"
        }
      ],
      "name": "poolInfo",
      "outputs": [
        {
          "internalType": "contract IBEP20",
          "name": "lpToken",
          "type": "address"
        },
        {
          "internalType": "uint256",
          "name": "allocPoint",
          "type": "uint256"
        },
        {
          "internalType": "uint256",
          "name": "lastRewardBlock",
          "type": "uint256"
        },
        {
          "internalType": "uint256",
          "name": "accEbiPerShare",
          "type": "uint256"
        },
        {
          "internalType": "uint16",
          "name": "depositFeeBP",
          "type": "uint16"
        }
      ],
      "stateMutability": "view",
      "type": "function"
    },
    {
      "inputs": [],
      "name": "renounceOwnership",
      "outputs": [],
      "stateMutability": "nonpayable",
      "type": "function"
    },
    {
      "inputs": [],
      "name": "startBlock",
      "outputs": [
        {
          "internalType": "uint256",
          "name": "",
          "type": "uint256"
        }
      ],
      "stateMutability": "view",
      "type": "function"
    },
    {
      "inputs": [],
      "name": "totalAllocPoint",
      "outputs": [
        {
          "internalType": "uint256",
          "name": "",
          "type": "uint256"
        }
      ],
      "stateMutability": "view",
      "type": "function"
    },
    {
      "inputs": [
        {
          "internalType": "address",
          "name": "newOwner",
          "type": "address"
        }
      ],
      "name": "transferOwnership",
      "outputs": [],
      "stateMutability": "nonpayable",
      "type": "function"
    },
    {
      "inputs": [
        {
          "internalType": "uint256",
          "name": "",
          "type": "uint256"
        },
        {
          "internalType": "address",
          "name": "",
          "type": "address"
        }
      ],
      "name": "userInfo",
      "outputs": [
        {
          "internalType": "uint256",
          "name": "amount",
          "type": "uint256"
        },
        {
          "internalType": "uint256",
          "name": "rewardDebt",
          "type": "uint256"
        }
      ],
      "stateMutability": "view",
      "type": "function"
    },
    {
      "inputs": [],
      "name": "poolLength",
      "outputs": [
        {
          "internalType": "uint256",
          "name": "",
          "type": "uint256"
        }
      ],
      "stateMutability": "view",
      "type": "function"
    },
    {
      "inputs": [
        {
          "internalType": "uint256",
          "name": "_allocPoint",
          "type": "uint256"
        },
        {
          "internalType": "contract IBEP20",
          "name": "_lpToken",
          "type": "address"
        },
        {
          "internalType": "uint16",
          "name": "_depositFeeBP",
          "type": "uint16"
        },
        {
          "internalType": "bool",
          "name": "_withUpdate",
          "type": "bool"
        }
      ],
      "name": "add",
      "outputs": [],
      "stateMutability": "nonpayable",
      "type": "function"
    },
    {
      "inputs": [
        {
          "internalType": "uint256",
          "name": "_pid",
          "type": "uint256"
        },
        {
          "internalType": "uint256",
          "name": "_allocPoint",
          "type": "uint256"
        },
        {
          "internalType": "uint16",
          "name": "_depositFeeBP",
          "type": "uint16"
        },
        {
          "internalType": "bool",
          "name": "_withUpdate",
          "type": "bool"
        }
      ],
      "name": "set",
      "outputs": [],
      "stateMutability": "nonpayable",
      "type": "function"
    },
    {
      "inputs": [
        {
          "internalType": "uint256",
          "name": "_from",
          "type": "uint256"
        },
        {
          "internalType": "uint256",
          "name": "_to",
          "type": "uint256"
        }
      ],
      "name": "getMultiplier",
      "outputs": [
        {
          "internalType": "uint256",
          "name": "",
          "type": "uint256"
        }
      ],
      "stateMutability": "view",
      "type": "function"
    },
    {
      "inputs": [
        {
          "internalType": "uint256",
          "name": "_pid",
          "type": "uint256"
        },
        {
          "internalType": "address",
          "name": "_user",
          "type": "address"
        }
      ],
      "name": "pendingEbi",
      "outputs": [
        {
          "internalType": "uint256",
          "name": "",
          "type": "uint256"
        }
      ],
      "stateMutability": "view",
      "type": "function"
    },
    {
      "inputs": [],
      "name": "massUpdatePools",
      "outputs": [],
      "stateMutability": "nonpayable",
      "type": "function"
    },
    {
      "inputs": [
        {
          "internalType": "uint256",
          "name": "_pid",
          "type": "uint256"
        }
      ],
      "name": "updatePool",
      "outputs": [],
      "stateMutability": "nonpayable",
      "type": "function"
    },
    {
      "inputs": [
        {
          "internalType": "uint256",
          "name": "_pid",
          "type": "uint256"
        },
        {
          "internalType": "uint256",
          "name": "_amount",
          "type": "uint256"
        }
      ],
      "name": "deposit",
      "outputs": [],
      "stateMutability": "nonpayable",
      "type": "function"
    },
    {
      "inputs": [
        {
          "internalType": "uint256",
          "name": "_pid",
          "type": "uint256"
        },
        {
          "internalType": "uint256",
          "name": "_amount",
          "type": "uint256"
        }
      ],
      "name": "withdraw",
      "outputs": [],
      "stateMutability": "nonpayable",
      "type": "function"
    },
    {
      "inputs": [
        {
          "internalType": "uint256",
          "name": "_pid",
          "type": "uint256"
        }
      ],
      "name": "emergencyWithdraw",
      "outputs": [],
      "stateMutability": "nonpayable",
      "type": "function"
    },
    {
      "inputs": [
        {
          "internalType": "address",
          "name": "_devaddr",
          "type": "address"
        }
      ],
      "name": "dev",
      "outputs": [],
      "stateMutability": "nonpayable",
      "type": "function"
    },
    {
      "inputs": [
        {
          "internalType": "address",
          "name": "_feeAddress",
          "type": "address"
        }
      ],
      "name": "setFeeAddress",
      "outputs": [],
      "stateMutability": "nonpayable",
      "type": "function"
    },
    {
      "inputs": [
        {
          "internalType": "uint256",
          "name": "_ebiPerBlock",
          "type": "uint256"
        }
      ],
      "name": "updateEmissionRate",
      "outputs": [],
      "stateMutability": "nonpayable",
      "type": "function"
    }
  ],
  "bytecode": "0x608060405260006008553480156200001657600080fd5b50604051620036623803806200366283398181016040528101906200003c919062000250565b6200005c620000506200013f60201b60201c565b6200014760201b60201c565b6001808190555084600260006101000a81548173ffffffffffffffffffffffffffffffffffffffff021916908373ffffffffffffffffffffffffffffffffffffffff16021790555083600360006101000a81548173ffffffffffffffffffffffffffffffffffffffff021916908373ffffffffffffffffffffffffffffffffffffffff16021790555082600560006101000a81548173ffffffffffffffffffffffffffffffffffffffff021916908373ffffffffffffffffffffffffffffffffffffffff1602179055508160048190555080600981905550505050505062000372565b600033905090565b60008060009054906101000a900473ffffffffffffffffffffffffffffffffffffffff169050816000806101000a81548173ffffffffffffffffffffffffffffffffffffffff021916908373ffffffffffffffffffffffffffffffffffffffff1602179055508173ffffffffffffffffffffffffffffffffffffffff168173ffffffffffffffffffffffffffffffffffffffff167f8be0079c531659141344cd1fd0a4f28419497f9722a3daafe3b4186f6b6457e060405160405180910390a35050565b6000815190506200021c8162000324565b92915050565b60008151905062000233816200033e565b92915050565b6000815190506200024a8162000358565b92915050565b600080600080600060a086880312156200026957600080fd5b6000620002798882890162000222565b95505060206200028c888289016200020b565b94505060406200029f888289016200020b565b9350506060620002b28882890162000239565b9250506080620002c58882890162000239565b9150509295509295909350565b6000620002df82620002fa565b9050919050565b6000620002f382620002d2565b9050919050565b600073ffffffffffffffffffffffffffffffffffffffff82169050919050565b6000819050919050565b6200032f81620002d2565b81146200033b57600080fd5b50565b6200034981620002e6565b81146200035557600080fd5b50565b62000363816200031a565b81146200036f57600080fd5b50565b6132e080620003826000396000f3fe608060405234801561001057600080fd5b506004361061018e5760003560e01c80638705fcd4116100de578063ad0c8f0111610097578063d963842211610071578063d96384221461043e578063e2bbb1581461045a578063f2fde38b14610476578063f61574c4146104925761018e565b8063ad0c8f01146103d2578063cbd258b5146103f0578063d49e77cd146104205761018e565b80638705fcd4146102fd5780638aa28550146103195780638d88a90e146103375780638da5cb5b146103535780638dbb1e3a1461037157806393f1a40b146103a15761018e565b806348cd4cb11161014b5780635312ea8e116101255780635312ea8e146102b1578063630b5ba1146102cd578063715018a6146102d757806384e82a33146102e15761018e565b806348cd4cb1146102595780634a0549c21461027757806351eb05a6146102955761018e565b8063081e3eda146101935780630ba84cd2146101b15780631526fe27146101cd57806317caf6f114610201578063412753581461021f578063441a3e701461023d575b600080fd5b61019b6104c2565b6040516101a89190612f11565b60405180910390f35b6101cb60048036038101906101c691906125e2565b6104cf565b005b6101e760048036038101906101e291906125e2565b6105ab565b6040516101f8959493929190612cfc565b60405180910390f35b61020961061f565b6040516102169190612f11565b60405180910390f35b610227610625565b6040516102349190612c4b565b60405180910390f35b610257600480360381019061025291906126d3565b61064b565b005b6102616108f8565b60405161026e9190612f11565b60405180910390f35b61027f6108fe565b60405161028c9190612ce1565b60405180910390f35b6102af60048036038101906102aa91906125e2565b610924565b005b6102cb60048036038101906102c691906125e2565b610c5b565b005b6102d5610e11565b005b6102df610e44565b005b6102fb60048036038101906102f69190612670565b610ecc565b005b61031760048036038101906103129190612567565b6111bd565b005b6103216112eb565b60405161032e9190612f11565b60405180910390f35b610351600480360381019061034c9190612567565b6112f0565b005b61035b61141e565b6040516103689190612c4b565b60405180910390f35b61038b600480360381019061038691906126d3565b611447565b6040516103989190612f11565b60405180910390f35b6103bb60048036038101906103b69190612634565b611477565b6040516103c9929190612f2c565b60405180910390f35b6103da6114a8565b6040516103e79190612f11565b60405180910390f35b61040a600480360381019061040591906125b9565b6114ae565b6040516104179190612cc6565b60405180910390f35b6104286114ce565b6040516104359190612c4b565b60405180910390f35b6104586004803603810190610453919061270f565b6114f4565b005b610474600480360381019061046f91906126d3565b6116fc565b005b610490600480360381019061048b9190612567565b611a7b565b005b6104ac60048036038101906104a79190612634565b611b73565b6040516104b99190612f11565b60405180910390f35b6000600680549050905090565b6104d7611dcd565b73ffffffffffffffffffffffffffffffffffffffff166104f561141e565b73ffffffffffffffffffffffffffffffffffffffff161461054b576040517f08c379a000000000000000000000000000000000000000000000000000000000815260040161054290612e31565b60405180910390fd5b610553610e11565b806004819055503373ffffffffffffffffffffffffffffffffffffffff167fe2492e003bbe8afa53088b406f0c1cb5d9e280370fc72a74cf116ffd343c4053826040516105a09190612f11565b60405180910390a250565b600681815481106105bb57600080fd5b90600052602060002090600502016000915090508060000160009054906101000a900473ffffffffffffffffffffffffffffffffffffffff16908060010154908060020154908060030154908060040160009054906101000a900461ffff16905085565b60085481565b600560009054906101000a900473ffffffffffffffffffffffffffffffffffffffff1681565b60026001541415610691576040517f08c379a000000000000000000000000000000000000000000000000000000000815260040161068890612ef1565b60405180910390fd5b60026001819055506000600683815481106106d5577f4e487b7100000000000000000000000000000000000000000000000000000000600052603260045260246000fd5b9060005260206000209060050201905060006007600085815260200190815260200160002060003373ffffffffffffffffffffffffffffffffffffffff1673ffffffffffffffffffffffffffffffffffffffff16815260200190815260200160002090508281600001541015610780576040517f08c379a000000000000000000000000000000000000000000000000000000000815260040161077790612e91565b60405180910390fd5b61078984610924565b60006107d382600101546107c564e8d4a510006107b787600301548760000154611dd590919063ffffffff16565b611deb90919063ffffffff16565b611e0190919063ffffffff16565b905060008111156107e9576107e83382611e17565b5b600084111561086157610809848360000154611e0190919063ffffffff16565b826000018190555061086033858560000160009054906101000a900473ffffffffffffffffffffffffffffffffffffffff1673ffffffffffffffffffffffffffffffffffffffff1661207e9092919063ffffffff16565b5b61089364e8d4a5100061088585600301548560000154611dd590919063ffffffff16565b611deb90919063ffffffff16565b8260010181905550843373ffffffffffffffffffffffffffffffffffffffff167ff279e6a1f5e320cca91135676d9cb6e44ca8a08c0b88342bcdb1144f6511b568866040516108e29190612f11565b60405180910390a3505050600180819055505050565b60095481565b600260009054906101000a900473ffffffffffffffffffffffffffffffffffffffff1681565b600060068281548110610960577f4e487b7100000000000000000000000000000000000000000000000000000000600052603260045260246000fd5b90600052602060002090600502019050806002015443116109815750610c58565b60008160000160009054906101000a900473ffffffffffffffffffffffffffffffffffffffff1673ffffffffffffffffffffffffffffffffffffffff166370a08231306040518263ffffffff1660e01b81526004016109e09190612c4b565b60206040518083038186803b1580156109f857600080fd5b505afa158015610a0c573d6000803e3d6000fd5b505050506040513d601f19601f82011682018060405250810190610a30919061260b565b90506000811480610a45575060008260010154145b15610a5a574382600201819055505050610c58565b6000610a6a836002015443611447565b90506000610aad600854610a9f8660010154610a9160045487611dd590919063ffffffff16565b611dd590919063ffffffff16565b611deb90919063ffffffff16565b9050600260009054906101000a900473ffffffffffffffffffffffffffffffffffffffff1673ffffffffffffffffffffffffffffffffffffffff166340c10f19600360009054906101000a900473ffffffffffffffffffffffffffffffffffffffff16610b24600a85611deb90919063ffffffff16565b6040518363ffffffff1660e01b8152600401610b41929190612c9d565b600060405180830381600087803b158015610b5b57600080fd5b505af1158015610b6f573d6000803e3d6000fd5b50505050600260009054906101000a900473ffffffffffffffffffffffffffffffffffffffff1673ffffffffffffffffffffffffffffffffffffffff166340c10f1930836040518363ffffffff1660e01b8152600401610bd0929190612c9d565b600060405180830381600087803b158015610bea57600080fd5b505af1158015610bfe573d6000803e3d6000fd5b50505050610c42610c2f84610c2164e8d4a5100085611dd590919063ffffffff16565b611deb90919063ffffffff16565b856003015461210490919063ffffffff16565b8460030181905550438460020181905550505050505b50565b60026001541415610ca1576040517f08c379a0000000000000000000000000000000000000000000000000000000008152600401610c9890612ef1565b60405180910390fd5b6002600181905550600060068281548110610ce5577f4e487b7100000000000000000000000000000000000000000000000000000000600052603260045260246000fd5b9060005260206000209060050201905060006007600084815260200190815260200160002060003373ffffffffffffffffffffffffffffffffffffffff1673ffffffffffffffffffffffffffffffffffffffff16815260200190815260200160002090506000816000015490506000826000018190555060008260010181905550610db533828560000160009054906101000a900473ffffffffffffffffffffffffffffffffffffffff1673ffffffffffffffffffffffffffffffffffffffff1661207e9092919063ffffffff16565b833373ffffffffffffffffffffffffffffffffffffffff167fbb757047c2b5f3974fe26b7c10f732e7bce710b0952a71082702781e62ae059583604051610dfc9190612f11565b60405180910390a35050506001808190555050565b6000600680549050905060005b81811015610e4057610e2f81610924565b80610e399061317f565b9050610e1e565b5050565b610e4c611dcd565b73ffffffffffffffffffffffffffffffffffffffff16610e6a61141e565b73ffffffffffffffffffffffffffffffffffffffff1614610ec0576040517f08c379a0000000000000000000000000000000000000000000000000000000008152600401610eb790612e31565b60405180910390fd5b610eca600061211a565b565b610ed4611dcd565b73ffffffffffffffffffffffffffffffffffffffff16610ef261141e565b73ffffffffffffffffffffffffffffffffffffffff1614610f48576040517f08c379a0000000000000000000000000000000000000000000000000000000008152600401610f3f90612e31565b60405180910390fd5b8260001515600a60008373ffffffffffffffffffffffffffffffffffffffff1673ffffffffffffffffffffffffffffffffffffffff16815260200190815260200160002060009054906101000a900460ff16151514610fdc576040517f08c379a0000000000000000000000000000000000000000000000000000000008152600401610fd390612eb1565b60405180910390fd5b6101908361ffff161115611025576040517f08c379a000000000000000000000000000000000000000000000000000000000815260040161101c90612d71565b60405180910390fd5b811561103457611033610e11565b5b6000600954431161104757600954611049565b435b90506110608660085461210490919063ffffffff16565b6008819055506001600a60008773ffffffffffffffffffffffffffffffffffffffff1673ffffffffffffffffffffffffffffffffffffffff16815260200190815260200160002060006101000a81548160ff02191690831515021790555060066040518060a001604052808773ffffffffffffffffffffffffffffffffffffffff168152602001888152602001838152602001600081526020018661ffff16815250908060018154018082558091505060019003906000526020600020906005020160009091909190915060008201518160000160006101000a81548173ffffffffffffffffffffffffffffffffffffffff021916908373ffffffffffffffffffffffffffffffffffffffff16021790555060208201518160010155604082015181600201556060820151816003015560808201518160040160006101000a81548161ffff021916908361ffff1602179055505050505050505050565b600560009054906101000a900473ffffffffffffffffffffffffffffffffffffffff1673ffffffffffffffffffffffffffffffffffffffff163373ffffffffffffffffffffffffffffffffffffffff161461124d576040517f08c379a000000000000000000000000000000000000000000000000000000000815260040161124490612ed1565b60405180910390fd5b80600560006101000a81548173ffffffffffffffffffffffffffffffffffffffff021916908373ffffffffffffffffffffffffffffffffffffffff1602179055508073ffffffffffffffffffffffffffffffffffffffff163373ffffffffffffffffffffffffffffffffffffffff167fd44190acf9d04bdb5d3a1aafff7e6dee8b40b93dfb8c5d3f0eea4b9f4539c3f760405160405180910390a350565b600181565b600360009054906101000a900473ffffffffffffffffffffffffffffffffffffffff1673ffffffffffffffffffffffffffffffffffffffff163373ffffffffffffffffffffffffffffffffffffffff1614611380576040517f08c379a000000000000000000000000000000000000000000000000000000000815260040161137790612df1565b60405180910390fd5b80600360006101000a81548173ffffffffffffffffffffffffffffffffffffffff021916908373ffffffffffffffffffffffffffffffffffffffff1602179055508073ffffffffffffffffffffffffffffffffffffffff163373ffffffffffffffffffffffffffffffffffffffff167f618c54559e94f1499a808aad71ee8729f8e74e8c48e979616328ce493a1a52e760405160405180910390a350565b60008060009054906101000a900473ffffffffffffffffffffffffffffffffffffffff16905090565b600061146f60016114618585611e0190919063ffffffff16565b611dd590919063ffffffff16565b905092915050565b6007602052816000526040600020602052806000526040600020600091509150508060000154908060010154905082565b60045481565b600a6020528060005260406000206000915054906101000a900460ff1681565b600360009054906101000a900473ffffffffffffffffffffffffffffffffffffffff1681565b6114fc611dcd565b73ffffffffffffffffffffffffffffffffffffffff1661151a61141e565b73ffffffffffffffffffffffffffffffffffffffff1614611570576040517f08c379a000000000000000000000000000000000000000000000000000000000815260040161156790612e31565b60405180910390fd5b6101908261ffff1611156115b9576040517f08c379a00000000000000000000000000000000000000000000000000000000081526004016115b090612e11565b60405180910390fd5b80156115c8576115c7610e11565b5b61163a8361162c60068781548110611609577f4e487b7100000000000000000000000000000000000000000000000000000000600052603260045260246000fd5b906000526020600020906005020160010154600854611e0190919063ffffffff16565b61210490919063ffffffff16565b600881905550826006858154811061167b577f4e487b7100000000000000000000000000000000000000000000000000000000600052603260045260246000fd5b90600052602060002090600502016001018190555081600685815481106116cb577f4e487b7100000000000000000000000000000000000000000000000000000000600052603260045260246000fd5b906000526020600020906005020160040160006101000a81548161ffff021916908361ffff16021790555050505050565b60026001541415611742576040517f08c379a000000000000000000000000000000000000000000000000000000000815260040161173990612ef1565b60405180910390fd5b6002600181905550600060068381548110611786577f4e487b7100000000000000000000000000000000000000000000000000000000600052603260045260246000fd5b9060005260206000209060050201905060006007600085815260200190815260200160002060003373ffffffffffffffffffffffffffffffffffffffff1673ffffffffffffffffffffffffffffffffffffffff16815260200190815260200160002090506117f384610924565b60008160000154111561186257600061184a826001015461183c64e8d4a5100061182e87600301548760000154611dd590919063ffffffff16565b611deb90919063ffffffff16565b611e0190919063ffffffff16565b905060008111156118605761185f3382611e17565b5b505b60008311156119e5576118bc3330858560000160009054906101000a900473ffffffffffffffffffffffffffffffffffffffff1673ffffffffffffffffffffffffffffffffffffffff166121de909392919063ffffffff16565b60008260040160009054906101000a900461ffff1661ffff1611156119c457600061191a61271061190c8560040160009054906101000a900461ffff1661ffff1687611dd590919063ffffffff16565b611deb90919063ffffffff16565b905061198d600560009054906101000a900473ffffffffffffffffffffffffffffffffffffffff16828560000160009054906101000a900473ffffffffffffffffffffffffffffffffffffffff1673ffffffffffffffffffffffffffffffffffffffff1661207e9092919063ffffffff16565b6119b6816119a886856000015461210490919063ffffffff16565b611e0190919063ffffffff16565b8260000181905550506119e4565b6119db83826000015461210490919063ffffffff16565b81600001819055505b5b611a1764e8d4a51000611a0984600301548460000154611dd590919063ffffffff16565b611deb90919063ffffffff16565b8160010181905550833373ffffffffffffffffffffffffffffffffffffffff167f90890809c654f11d6e72a28fa60149770a0d11ec6c92319d6ceb2bb0a4ea1a1585604051611a669190612f11565b60405180910390a35050600180819055505050565b611a83611dcd565b73ffffffffffffffffffffffffffffffffffffffff16611aa161141e565b73ffffffffffffffffffffffffffffffffffffffff1614611af7576040517f08c379a0000000000000000000000000000000000000000000000000000000008152600401611aee90612e31565b60405180910390fd5b600073ffffffffffffffffffffffffffffffffffffffff168173ffffffffffffffffffffffffffffffffffffffff161415611b67576040517f08c379a0000000000000000000000000000000000000000000000000000000008152600401611b5e90612db1565b60405180910390fd5b611b708161211a565b50565b60008060068481548110611bb0577f4e487b7100000000000000000000000000000000000000000000000000000000600052603260045260246000fd5b9060005260206000209060050201905060006007600086815260200190815260200160002060008573ffffffffffffffffffffffffffffffffffffffff1673ffffffffffffffffffffffffffffffffffffffff168152602001908152602001600020905060008260030154905060008360000160009054906101000a900473ffffffffffffffffffffffffffffffffffffffff1673ffffffffffffffffffffffffffffffffffffffff166370a08231306040518263ffffffff1660e01b8152600401611c7c9190612c4b565b60206040518083038186803b158015611c9457600080fd5b505afa158015611ca8573d6000803e3d6000fd5b505050506040513d601f19601f82011682018060405250810190611ccc919061260b565b9050836002015443118015611ce2575060008114155b15611d7d576000611cf7856002015443611447565b90506000611d3a600854611d2c8860010154611d1e60045487611dd590919063ffffffff16565b611dd590919063ffffffff16565b611deb90919063ffffffff16565b9050611d78611d6984611d5b64e8d4a5100085611dd590919063ffffffff16565b611deb90919063ffffffff16565b8561210490919063ffffffff16565b935050505b611dc18360010154611db364e8d4a51000611da5868860000154611dd590919063ffffffff16565b611deb90919063ffffffff16565b611e0190919063ffffffff16565b94505050505092915050565b600033905090565b60008183611de3919061300e565b905092915050565b60008183611df99190612fdd565b905092915050565b60008183611e0f9190613068565b905092915050565b6000600260009054906101000a900473ffffffffffffffffffffffffffffffffffffffff1673ffffffffffffffffffffffffffffffffffffffff166370a08231306040518263ffffffff1660e01b8152600401611e749190612c4b565b60206040518083038186803b158015611e8c57600080fd5b505afa158015611ea0573d6000803e3d6000fd5b505050506040513d601f19601f82011682018060405250810190611ec4919061260b565b9050600081831115611f8657600260009054906101000a900473ffffffffffffffffffffffffffffffffffffffff1673ffffffffffffffffffffffffffffffffffffffff1663a9059cbb85846040518363ffffffff1660e01b8152600401611f2d929190612c9d565b602060405180830381600087803b158015611f4757600080fd5b505af1158015611f5b573d6000803e3d6000fd5b505050506040513d601f19601f82011682018060405250810190611f7f9190612590565b9050612038565b600260009054906101000a900473ffffffffffffffffffffffffffffffffffffffff1673ffffffffffffffffffffffffffffffffffffffff1663a9059cbb85856040518363ffffffff1660e01b8152600401611fe3929190612c9d565b602060405180830381600087803b158015611ffd57600080fd5b505af1158015612011573d6000803e3d6000fd5b505050506040513d601f19601f820116820180604052508101906120359190612590565b90505b80612078576040517f08c379a000000000000000000000000000000000000000000000000000000000815260040161206f90612e51565b60405180910390fd5b50505050565b6120ff8363a9059cbb60e01b848460405160240161209d929190612c9d565b604051602081830303815290604052907bffffffffffffffffffffffffffffffffffffffffffffffffffffffff19166020820180517bffffffffffffffffffffffffffffffffffffffffffffffffffffffff8381831617835250505050612267565b505050565b600081836121129190612f87565b905092915050565b60008060009054906101000a900473ffffffffffffffffffffffffffffffffffffffff169050816000806101000a81548173ffffffffffffffffffffffffffffffffffffffff021916908373ffffffffffffffffffffffffffffffffffffffff1602179055508173ffffffffffffffffffffffffffffffffffffffff168173ffffffffffffffffffffffffffffffffffffffff167f8be0079c531659141344cd1fd0a4f28419497f9722a3daafe3b4186f6b6457e060405160405180910390a35050565b612261846323b872dd60e01b8585856040516024016121ff93929190612c66565b604051602081830303815290604052907bffffffffffffffffffffffffffffffffffffffffffffffffffffffff19166020820180517bffffffffffffffffffffffffffffffffffffffffffffffffffffffff8381831617835250505050612267565b50505050565b60006122c9826040518060400160405280602081526020017f5361666542455032303a206c6f772d6c6576656c2063616c6c206661696c65648152508573ffffffffffffffffffffffffffffffffffffffff1661232e9092919063ffffffff16565b905060008151111561232957808060200190518101906122e99190612590565b612328576040517f08c379a000000000000000000000000000000000000000000000000000000000815260040161231f90612d91565b60405180910390fd5b5b505050565b606061233d8484600085612346565b90509392505050565b60608247101561238b576040517f08c379a000000000000000000000000000000000000000000000000000000000815260040161238290612dd1565b60405180910390fd5b6123948561245a565b6123d3576040517f08c379a00000000000000000000000000000000000000000000000000000000081526004016123ca90612e71565b60405180910390fd5b6000808673ffffffffffffffffffffffffffffffffffffffff1685876040516123fc9190612c34565b60006040518083038185875af1925050503d8060008114612439576040519150601f19603f3d011682016040523d82523d6000602084013e61243e565b606091505b509150915061244e82828661246d565b92505050949350505050565b600080823b905060008111915050919050565b6060831561247d578290506124cd565b6000835111156124905782518084602001fd5b816040517f08c379a00000000000000000000000000000000000000000000000000000000081526004016124c49190612d4f565b60405180910390fd5b9392505050565b6000813590506124e381613237565b92915050565b6000813590506124f88161324e565b92915050565b60008151905061250d8161324e565b92915050565b60008135905061252281613265565b92915050565b6000813590506125378161327c565b92915050565b60008135905061254c81613293565b92915050565b60008151905061256181613293565b92915050565b60006020828403121561257957600080fd5b6000612587848285016124d4565b91505092915050565b6000602082840312156125a257600080fd5b60006125b0848285016124fe565b91505092915050565b6000602082840312156125cb57600080fd5b60006125d984828501612513565b91505092915050565b6000602082840312156125f457600080fd5b60006126028482850161253d565b91505092915050565b60006020828403121561261d57600080fd5b600061262b84828501612552565b91505092915050565b6000806040838503121561264757600080fd5b60006126558582860161253d565b9250506020612666858286016124d4565b9150509250929050565b6000806000806080858703121561268657600080fd5b60006126948782880161253d565b94505060206126a587828801612513565b93505060406126b687828801612528565b92505060606126c7878288016124e9565b91505092959194509250565b600080604083850312156126e657600080fd5b60006126f48582860161253d565b92505060206127058582860161253d565b9150509250929050565b6000806000806080858703121561272557600080fd5b60006127338782880161253d565b94505060206127448782880161253d565b935050604061275587828801612528565b9250506060612766878288016124e9565b91505092959194509250565b61277b8161309c565b82525050565b61278a816130ae565b82525050565b600061279b82612f55565b6127a58185612f6b565b93506127b581856020860161314c565b80840191505092915050565b6127ca81613104565b82525050565b6127d981613128565b82525050565b60006127ea82612f60565b6127f48185612f76565b935061280481856020860161314c565b61280d81613226565b840191505092915050565b6000612825602583612f76565b91507f6164643a20696e76616c6964206465706f73697420666565206261736973207060008301527f6f696e74730000000000000000000000000000000000000000000000000000006020830152604082019050919050565b600061288b602a83612f76565b91507f5361666542455032303a204245503230206f7065726174696f6e20646964206e60008301527f6f742073756363656564000000000000000000000000000000000000000000006020830152604082019050919050565b60006128f1602683612f76565b91507f4f776e61626c653a206e6577206f776e657220697320746865207a65726f206160008301527f64647265737300000000000000000000000000000000000000000000000000006020830152604082019050919050565b6000612957602683612f76565b91507f416464726573733a20696e73756666696369656e742062616c616e636520666f60008301527f722063616c6c00000000000000000000000000000000000000000000000000006020830152604082019050919050565b60006129bd600983612f76565b91507f6465763a207775743f00000000000000000000000000000000000000000000006000830152602082019050919050565b60006129fd602583612f76565b91507f7365743a20696e76616c6964206465706f73697420666565206261736973207060008301527f6f696e74730000000000000000000000000000000000000000000000000000006020830152604082019050919050565b6000612a63602083612f76565b91507f4f776e61626c653a2063616c6c6572206973206e6f7420746865206f776e65726000830152602082019050919050565b6000612aa3602083612f76565b91507f736166654562695472616e736665723a207472616e73666572206661696c65646000830152602082019050919050565b6000612ae3601d83612f76565b91507f416464726573733a2063616c6c20746f206e6f6e2d636f6e74726163740000006000830152602082019050919050565b6000612b23601283612f76565b91507f77697468647261773a206e6f7420676f6f6400000000000000000000000000006000830152602082019050919050565b6000612b63601983612f76565b91507f6e6f6e4475706c6963617465643a206475706c696361746564000000000000006000830152602082019050919050565b6000612ba3601883612f76565b91507f736574466565416464726573733a20464f5242494444454e00000000000000006000830152602082019050919050565b6000612be3601f83612f76565b91507f5265656e7472616e637947756172643a207265656e7472616e742063616c6c006000830152602082019050919050565b612c1f816130cc565b82525050565b612c2e816130fa565b82525050565b6000612c408284612790565b915081905092915050565b6000602082019050612c606000830184612772565b92915050565b6000606082019050612c7b6000830186612772565b612c886020830185612772565b612c956040830184612c25565b949350505050565b6000604082019050612cb26000830185612772565b612cbf6020830184612c25565b9392505050565b6000602082019050612cdb6000830184612781565b92915050565b6000602082019050612cf660008301846127c1565b92915050565b600060a082019050612d1160008301886127d0565b612d1e6020830187612c25565b612d2b6040830186612c25565b612d386060830185612c25565b612d456080830184612c16565b9695505050505050565b60006020820190508181036000830152612d6981846127df565b905092915050565b60006020820190508181036000830152612d8a81612818565b9050919050565b60006020820190508181036000830152612daa8161287e565b9050919050565b60006020820190508181036000830152612dca816128e4565b9050919050565b60006020820190508181036000830152612dea8161294a565b9050919050565b60006020820190508181036000830152612e0a816129b0565b9050919050565b60006020820190508181036000830152612e2a816129f0565b9050919050565b60006020820190508181036000830152612e4a81612a56565b9050919050565b60006020820190508181036000830152612e6a81612a96565b9050919050565b60006020820190508181036000830152612e8a81612ad6565b9050919050565b60006020820190508181036000830152612eaa81612b16565b9050919050565b60006020820190508181036000830152612eca81612b56565b9050919050565b60006020820190508181036000830152612eea81612b96565b9050919050565b60006020820190508181036000830152612f0a81612bd6565b9050919050565b6000602082019050612f266000830184612c25565b92915050565b6000604082019050612f416000830185612c25565b612f4e6020830184612c25565b9392505050565b600081519050919050565b600081519050919050565b600081905092915050565b600082825260208201905092915050565b6000612f92826130fa565b9150612f9d836130fa565b9250827fffffffffffffffffffffffffffffffffffffffffffffffffffffffffffffffff03821115612fd257612fd16131c8565b5b828201905092915050565b6000612fe8826130fa565b9150612ff3836130fa565b925082613003576130026131f7565b5b828204905092915050565b6000613019826130fa565b9150613024836130fa565b9250817fffffffffffffffffffffffffffffffffffffffffffffffffffffffffffffffff048311821515161561305d5761305c6131c8565b5b828202905092915050565b6000613073826130fa565b915061307e836130fa565b925082821015613091576130906131c8565b5b828203905092915050565b60006130a7826130da565b9050919050565b60008115159050919050565b60006130c58261309c565b9050919050565b600061ffff82169050919050565b600073ffffffffffffffffffffffffffffffffffffffff82169050919050565b6000819050919050565b600061310f82613116565b9050919050565b6000613121826130da565b9050919050565b60006131338261313a565b9050919050565b6000613145826130da565b9050919050565b60005b8381101561316a57808201518184015260208101905061314f565b83811115613179576000848401525b50505050565b600061318a826130fa565b91507fffffffffffffffffffffffffffffffffffffffffffffffffffffffffffffffff8214156131bd576131bc6131c8565b5b600182019050919050565b7f4e487b7100000000000000000000000000000000000000000000000000000000600052601160045260246000fd5b7f4e487b7100000000000000000000000000000000000000000000000000000000600052601260045260246000fd5b6000601f19601f8301169050919050565b6132408161309c565b811461324b57600080fd5b50565b613257816130ae565b811461326257600080fd5b50565b61326e816130ba565b811461327957600080fd5b50565b613285816130cc565b811461329057600080fd5b50565b61329c816130fa565b81146132a757600080fd5b5056fea2646970667358221220d0df482bc775cf1a0c815d8326389df76b951b1416bea873854a1488fcf3722464736f6c63430008000033",
  "immutableReferences": {},
  "source": "// SPDX-License-Identifier: MIT\n\npragma solidity 0.8.0;\n\nimport \"@openzeppelin/contracts/utils/math/SafeMath.sol\";\nimport \"./libs/IBEP20.sol\";\nimport \"./libs/SafeBEP20.sol\";\nimport \"@openzeppelin/contracts/access/Ownable.sol\";\nimport \"@openzeppelin/contracts/security/ReentrancyGuard.sol\";\n\nimport \"./EBIToken.sol\";\n\n// MasterChef is the master of Ebi. He can make Ebi and he is a fair guy.\n//\n// Note that it's ownable and the owner wields tremendous power. The ownership\n// will be transferred to a governance smart contract once EBI is sufficiently\n// distributed and the community can show to govern itself.\n//\n// Have fun reading it. Hopefully it's bug-free. God bless.\ncontract MasterChefV2 is Ownable, ReentrancyGuard {\n    using SafeMath for uint256;\n    using SafeBEP20 for IBEP20;\n\n    // Info of each user.\n    struct UserInfo {\n        uint256 amount;         // How many LP tokens the user has provided.\n        uint256 rewardDebt;     // Reward debt. See explanation below.\n        //\n        // We do some fancy math here. Basically, any point in time, the amount of EBIs\n        // entitled to a user but is pending to be distributed is:\n        //\n        //   pending reward = (user.amount * pool.accEbiPerShare) - user.rewardDebt\n        //\n        // Whenever a user deposits or withdraws LP tokens to a pool. Here's what happens:\n        //   1. The pool's `accEbiPerShare` (and `lastRewardBlock`) gets updated.\n        //   2. User receives the pending reward sent to his/her address.\n        //   3. User's `amount` gets updated.\n        //   4. User's `rewardDebt` gets updated.\n    }\n\n    // Info of each pool.\n    struct PoolInfo {\n        IBEP20 lpToken;           // Address of LP token contract.\n        uint256 allocPoint;       // How many allocation points assigned to this pool. EBIs to distribute per block.\n        uint256 lastRewardBlock;  // Last block number that EBIs distribution occurs.\n        uint256 accEbiPerShare;   // Accumulated EBIs per share, times 1e12. See below.\n        uint16 depositFeeBP;      // Deposit fee in basis points\n    }\n\n    // The EBI TOKEN!\n    EBIToken public ebi;\n    // Dev address.\n    address public devaddr;\n    // EBI tokens created per block.\n    uint256 public ebiPerBlock;\n    // Bonus muliplier for early ebi makers.\n    uint256 public constant BONUS_MULTIPLIER = 1;\n    // Deposit Fee address\n    address public feeAddress;\n\n    // Info of each pool.\n    PoolInfo[] public poolInfo;\n    // Info of each user that stakes LP tokens.\n    mapping(uint256 => mapping(address => UserInfo)) public userInfo;\n    // Total allocation points. Must be the sum of all allocation points in all pools.\n    uint256 public totalAllocPoint = 0;\n    // The block number when EBI mining starts.\n    uint256 public startBlock;\n\n    event Deposit(address indexed user, uint256 indexed pid, uint256 amount);\n    event Withdraw(address indexed user, uint256 indexed pid, uint256 amount);\n    event EmergencyWithdraw(address indexed user, uint256 indexed pid, uint256 amount);\n    event SetFeeAddress(address indexed user, address indexed newAddress);\n    event SetDevAddress(address indexed user, address indexed newAddress);\n    event UpdateEmissionRate(address indexed user, uint256 goosePerBlock);\n\n    constructor(\n        EBIToken _ebi,\n        address _devaddr,\n        address _feeAddress,\n        uint256 _ebiPerBlock,\n        uint256 _startBlock\n    ) public {\n        ebi = _ebi;\n        devaddr = _devaddr;\n        feeAddress = _feeAddress;\n        ebiPerBlock = _ebiPerBlock;\n        startBlock = _startBlock;\n    }\n\n    function poolLength() external view returns (uint256) {\n        return poolInfo.length;\n    }\n\n    mapping(IBEP20 => bool) public poolExistence;\n    modifier nonDuplicated(IBEP20 _lpToken) {\n        require(poolExistence[_lpToken] == false, \"nonDuplicated: duplicated\");\n        _;\n    }\n\n    // Add a new lp to the pool. Can only be called by the owner.\n    function add(uint256 _allocPoint, IBEP20 _lpToken, uint16 _depositFeeBP, bool _withUpdate) public onlyOwner nonDuplicated(_lpToken) {\n        require(_depositFeeBP <= 400, \"add: invalid deposit fee basis points\");\n        if (_withUpdate) {\n            massUpdatePools();\n        }\n        uint256 lastRewardBlock = block.number > startBlock ? block.number : startBlock;\n        totalAllocPoint = totalAllocPoint.add(_allocPoint);\n        poolExistence[_lpToken] = true;\n        poolInfo.push(PoolInfo({\n        lpToken : _lpToken,\n        allocPoint : _allocPoint,\n        lastRewardBlock : lastRewardBlock,\n        accEbiPerShare : 0,\n        depositFeeBP : _depositFeeBP\n        }));\n    }\n\n    // Update the given pool's EBI allocation point and deposit fee. Can only be called by the owner.\n    function set(uint256 _pid, uint256 _allocPoint, uint16 _depositFeeBP, bool _withUpdate) public onlyOwner {\n        require(_depositFeeBP <= 400, \"set: invalid deposit fee basis points\");\n        if (_withUpdate) {\n            massUpdatePools();\n        }\n        totalAllocPoint = totalAllocPoint.sub(poolInfo[_pid].allocPoint).add(_allocPoint);\n        poolInfo[_pid].allocPoint = _allocPoint;\n        poolInfo[_pid].depositFeeBP = _depositFeeBP;\n    }\n\n    // Return reward multiplier over the given _from to _to block.\n    function getMultiplier(uint256 _from, uint256 _to) public view returns (uint256) {\n        return _to.sub(_from).mul(BONUS_MULTIPLIER);\n    }\n\n    // View function to see pending EBIs on frontend.\n    function pendingEbi(uint256 _pid, address _user) external view returns (uint256) {\n        PoolInfo storage pool = poolInfo[_pid];\n        UserInfo storage user = userInfo[_pid][_user];\n        uint256 accEbiPerShare = pool.accEbiPerShare;\n        uint256 lpSupply = pool.lpToken.balanceOf(address(this));\n        if (block.number > pool.lastRewardBlock && lpSupply != 0) {\n            uint256 multiplier = getMultiplier(pool.lastRewardBlock, block.number);\n            uint256 ebiReward = multiplier.mul(ebiPerBlock).mul(pool.allocPoint).div(totalAllocPoint);\n            accEbiPerShare = accEbiPerShare.add(ebiReward.mul(1e12).div(lpSupply));\n        }\n        return user.amount.mul(accEbiPerShare).div(1e12).sub(user.rewardDebt);\n    }\n\n    // Update reward variables for all pools. Be careful of gas spending!\n    function massUpdatePools() public {\n        uint256 length = poolInfo.length;\n        for (uint256 pid = 0; pid < length; ++pid) {\n            updatePool(pid);\n        }\n    }\n\n    // Update reward variables of the given pool to be up-to-date.\n    function updatePool(uint256 _pid) public {\n        PoolInfo storage pool = poolInfo[_pid];\n        if (block.number <= pool.lastRewardBlock) {\n            return;\n        }\n        uint256 lpSupply = pool.lpToken.balanceOf(address(this));\n        if (lpSupply == 0 || pool.allocPoint == 0) {\n            pool.lastRewardBlock = block.number;\n            return;\n        }\n        uint256 multiplier = getMultiplier(pool.lastRewardBlock, block.number);\n        uint256 ebiReward = multiplier.mul(ebiPerBlock).mul(pool.allocPoint).div(totalAllocPoint);\n        ebi.mint(devaddr, ebiReward.div(10));\n        ebi.mint(address(this), ebiReward);\n        pool.accEbiPerShare = pool.accEbiPerShare.add(ebiReward.mul(1e12).div(lpSupply));\n        pool.lastRewardBlock = block.number;\n    }\n\n    // Deposit LP tokens to MasterChef for EBI allocation.\n    function deposit(uint256 _pid, uint256 _amount) public nonReentrant {\n        PoolInfo storage pool = poolInfo[_pid];\n        UserInfo storage user = userInfo[_pid][msg.sender];\n        updatePool(_pid);\n        if (user.amount > 0) {\n            uint256 pending = user.amount.mul(pool.accEbiPerShare).div(1e12).sub(user.rewardDebt);\n            if (pending > 0) {\n                safeEbiTransfer(msg.sender, pending);\n            }\n        }\n        if (_amount > 0) {\n            pool.lpToken.safeTransferFrom(address(msg.sender), address(this), _amount);\n            if (pool.depositFeeBP > 0) {\n                uint256 depositFee = _amount.mul(pool.depositFeeBP).div(10000);\n                pool.lpToken.safeTransfer(feeAddress, depositFee);\n                user.amount = user.amount.add(_amount).sub(depositFee);\n            } else {\n                user.amount = user.amount.add(_amount);\n            }\n        }\n        user.rewardDebt = user.amount.mul(pool.accEbiPerShare).div(1e12);\n        emit Deposit(msg.sender, _pid, _amount);\n    }\n\n    // Withdraw LP tokens from MasterChef.\n    function withdraw(uint256 _pid, uint256 _amount) public nonReentrant {\n        PoolInfo storage pool = poolInfo[_pid];\n        UserInfo storage user = userInfo[_pid][msg.sender];\n        require(user.amount >= _amount, \"withdraw: not good\");\n        updatePool(_pid);\n        uint256 pending = user.amount.mul(pool.accEbiPerShare).div(1e12).sub(user.rewardDebt);\n        if (pending > 0) {\n            safeEbiTransfer(msg.sender, pending);\n        }\n        if (_amount > 0) {\n            user.amount = user.amount.sub(_amount);\n            pool.lpToken.safeTransfer(address(msg.sender), _amount);\n        }\n        user.rewardDebt = user.amount.mul(pool.accEbiPerShare).div(1e12);\n        emit Withdraw(msg.sender, _pid, _amount);\n    }\n\n    // Withdraw without caring about rewards. EMERGENCY ONLY.\n    function emergencyWithdraw(uint256 _pid) public nonReentrant {\n        PoolInfo storage pool = poolInfo[_pid];\n        UserInfo storage user = userInfo[_pid][msg.sender];\n        uint256 amount = user.amount;\n        user.amount = 0;\n        user.rewardDebt = 0;\n        pool.lpToken.safeTransfer(address(msg.sender), amount);\n        emit EmergencyWithdraw(msg.sender, _pid, amount);\n    }\n\n    // Safe ebi transfer function, just in case if rounding error causes pool to not have enough EBIs.\n    function safeEbiTransfer(address _to, uint256 _amount) internal {\n        uint256 ebiBal = ebi.balanceOf(address(this));\n        bool transferSuccess = false;\n        if (_amount > ebiBal) {\n            transferSuccess = ebi.transfer(_to, ebiBal);\n        } else {\n            transferSuccess = ebi.transfer(_to, _amount);\n        }\n        require(transferSuccess, \"safeEbiTransfer: transfer failed\");\n    }\n\n    // Update dev address by the previous dev.\n    function dev(address _devaddr) public {\n        require(msg.sender == devaddr, \"dev: wut?\");\n        devaddr = _devaddr;\n        emit SetDevAddress(msg.sender, _devaddr);\n    }\n\n    function setFeeAddress(address _feeAddress) public {\n        require(msg.sender == feeAddress, \"setFeeAddress: FORBIDDEN\");\n        feeAddress = _feeAddress;\n        emit SetFeeAddress(msg.sender, _feeAddress);\n    }\n\n    //Pancake has to add hidden dummy pools inorder to alter the emission, here we make it simple and transparent to all.\n    function updateEmissionRate(uint256 _ebiPerBlock) public onlyOwner {\n        massUpdatePools();\n        ebiPerBlock = _ebiPerBlock;\n        emit UpdateEmissionRate(msg.sender, _ebiPerBlock);\n    }\n}\n",
  "sourcePath": "/Users/anilkucukrecep/Code/Personal/defi-contracts/contracts/MasterChefV2.sol",
  "compiler": {
    "name": "solc",
    "version": "0.8.0+commit.c7dfd78e.Emscripten.clang"
  },
  "schemaVersion": "3.4.3",
  "updatedAt": "2021-08-14T14:29:55.744Z",
  "devdoc": {
    "kind": "dev",
    "methods": {
      "owner()": {
        "details": "Returns the address of the current owner."
      },
      "renounceOwnership()": {
        "details": "Leaves the contract without owner. It will not be possible to call `onlyOwner` functions anymore. Can only be called by the current owner. NOTE: Renouncing ownership will leave the contract without an owner, thereby removing any functionality that is only available to the owner."
      },
      "transferOwnership(address)": {
        "details": "Transfers ownership of the contract to a new account (`newOwner`). Can only be called by the current owner."
      }
    },
    "version": 1
  },
  "userdoc": {
    "kind": "user",
    "methods": {},
    "version": 1
  }
}